{
  "contractName": "Case",
  "abi": [
    {
      "inputs": [
        {
          "internalType": "string",
          "name": "_case_name",
          "type": "string"
        },
        {
          "internalType": "uint256",
          "name": "_case_number",
          "type": "uint256"
        }
      ],
      "payable": false,
      "stateMutability": "nonpayable",
      "type": "constructor"
    },
    {
      "constant": false,
      "inputs": [
        {
          "internalType": "string",
          "name": "_submitting_agent",
          "type": "string"
        },
        {
          "internalType": "string",
          "name": "_description_of_evidence",
          "type": "string"
        },
        {
          "internalType": "string",
          "name": "_description_of_offense",
          "type": "string"
        },
        {
          "internalType": "string",
          "name": "_victim_name",
          "type": "string"
        },
        {
          "internalType": "string",
          "name": "_suspect_name",
          "type": "string"
        },
        {
          "internalType": "string",
          "name": "_phone_number",
          "type": "string"
        },
        {
          "internalType": "string",
          "name": "_condition",
          "type": "string"
        },
        {
          "internalType": "string",
          "name": "_notes",
          "type": "string"
        },
        {
          "internalType": "string",
          "name": "_status",
          "type": "string"
        }
      ],
      "name": "log_evidence",
      "outputs": [],
      "payable": false,
      "stateMutability": "nonpayable",
      "type": "function"
    },
    {
      "constant": false,
      "inputs": [
        {
          "internalType": "address",
          "name": "_agent",
          "type": "address"
        }
      ],
      "name": "authorize_agent",
      "outputs": [],
      "payable": false,
      "stateMutability": "nonpayable",
      "type": "function"
    },
    {
      "constant": false,
      "inputs": [
        {
          "internalType": "address",
          "name": "_agent",
          "type": "address"
        }
      ],
      "name": "deauthorize_agent",
      "outputs": [],
      "payable": false,
      "stateMutability": "nonpayable",
      "type": "function"
    },
    {
      "constant": false,
      "inputs": [
        {
          "internalType": "uint256",
          "name": "_item_number",
          "type": "uint256"
        },
        {
          "internalType": "string",
          "name": "purpose",
          "type": "string"
        }
      ],
      "name": "check_out",
      "outputs": [],
      "payable": false,
      "stateMutability": "nonpayable",
      "type": "function"
    },
    {
      "constant": false,
      "inputs": [
        {
          "internalType": "uint256",
          "name": "_item_number",
          "type": "uint256"
        }
      ],
      "name": "check_in",
      "outputs": [],
      "payable": false,
      "stateMutability": "nonpayable",
      "type": "function"
    },
    {
      "constant": false,
      "inputs": [
        {
          "internalType": "string",
          "name": "_submitting_agent",
          "type": "string"
        },
        {
          "internalType": "uint256",
          "name": "_item_number",
          "type": "uint256"
        },
        {
          "internalType": "string",
          "name": "_description_of_evidence",
          "type": "string"
        },
        {
          "internalType": "string",
          "name": "_description_of_offense",
          "type": "string"
        },
        {
          "internalType": "string",
          "name": "_victim_name",
          "type": "string"
        },
        {
          "internalType": "string",
          "name": "_suspect_name",
          "type": "string"
        },
        {
          "internalType": "string",
          "name": "_phone_number",
          "type": "string"
        },
        {
          "internalType": "string",
          "name": "_condition",
          "type": "string"
        },
        {
          "internalType": "string",
          "name": "_notes",
          "type": "string"
        },
        {
          "internalType": "string",
          "name": "_status",
          "type": "string"
        }
      ],
      "name": "updateEvidence",
      "outputs": [],
      "payable": false,
      "stateMutability": "nonpayable",
      "type": "function"
    },
    {
      "constant": true,
      "inputs": [],
      "name": "item_count",
      "outputs": [
        {
          "internalType": "uint256",
          "name": "",
          "type": "uint256"
        }
      ],
      "payable": false,
      "stateMutability": "view",
      "type": "function"
    },
    {
      "constant": true,
      "inputs": [
        {
          "internalType": "uint256",
          "name": "_item_number",
          "type": "uint256"
        }
      ],
      "name": "get_storage_log",
      "outputs": [
        {
          "components": [
            {
              "internalType": "address",
              "name": "personnel",
              "type": "address"
            },
            {
              "internalType": "address",
              "name": "authorizer",
              "type": "address"
            },
            {
              "internalType": "string",
              "name": "purpose",
              "type": "string"
            },
            {
              "internalType": "uint256",
              "name": "time_checked_out",
              "type": "uint256"
            },
            {
              "internalType": "uint256",
              "name": "time_checked_in",
              "type": "uint256"
            },
            {
              "internalType": "bool",
              "name": "checked_in",
              "type": "bool"
            }
          ],
          "internalType": "struct ChainOfCustody.Check_Out[]",
          "name": "",
          "type": "tuple[]"
        }
      ],
      "payable": false,
      "stateMutability": "view",
      "type": "function"
    },
    {
      "constant": true,
      "inputs": [
        {
          "internalType": "uint256",
          "name": "_item_number",
          "type": "uint256"
        }
      ],
      "name": "get_current_check_out",
      "outputs": [
        {
          "components": [
            {
              "internalType": "address",
              "name": "personnel",
              "type": "address"
            },
            {
              "internalType": "address",
              "name": "authorizer",
              "type": "address"
            },
            {
              "internalType": "string",
              "name": "purpose",
              "type": "string"
            },
            {
              "internalType": "uint256",
              "name": "time_checked_out",
              "type": "uint256"
            },
            {
              "internalType": "uint256",
              "name": "time_checked_in",
              "type": "uint256"
            },
            {
              "internalType": "bool",
              "name": "checked_in",
              "type": "bool"
            }
          ],
          "internalType": "struct ChainOfCustody.Check_Out",
          "name": "",
          "type": "tuple"
        }
      ],
      "payable": false,
      "stateMutability": "view",
      "type": "function"
    },
    {
      "constant": true,
      "inputs": [
        {
          "internalType": "uint256",
          "name": "_item_number",
          "type": "uint256"
        }
      ],
      "name": "get_evidence",
      "outputs": [
        {
          "components": [
            {
              "internalType": "string",
              "name": "submitting_agent",
              "type": "string"
            },
            {
              "internalType": "uint256",
              "name": "item_number",
              "type": "uint256"
            },
            {
              "internalType": "string",
              "name": "description_of_evidence",
              "type": "string"
            },
            {
              "internalType": "string",
              "name": "description_of_offense",
              "type": "string"
            },
            {
              "internalType": "string",
              "name": "victim_name",
              "type": "string"
            },
            {
              "internalType": "string",
              "name": "suspect_name",
              "type": "string"
            },
            {
              "internalType": "string",
              "name": "phone_number",
              "type": "string"
            },
            {
              "internalType": "string",
              "name": "condition",
              "type": "string"
            },
            {
              "internalType": "string",
              "name": "notes",
              "type": "string"
            },
            {
              "internalType": "string",
              "name": "status",
              "type": "string"
            },
            {
              "internalType": "bool",
              "name": "exists",
              "type": "bool"
            }
          ],
          "internalType": "struct ChainOfCustody.Evidence",
          "name": "",
          "type": "tuple"
        }
      ],
      "payable": false,
      "stateMutability": "view",
      "type": "function"
    },
    {
      "constant": true,
      "inputs": [],
      "name": "get_evidence_count",
      "outputs": [
        {
          "internalType": "uint256",
          "name": "",
          "type": "uint256"
        }
      ],
      "payable": false,
      "stateMutability": "view",
      "type": "function"
    },
    {
      "constant": true,
      "inputs": [
        {
          "internalType": "address",
          "name": "_owner",
          "type": "address"
        }
      ],
      "name": "getEvidenceByOwner",
      "outputs": [
        {
          "internalType": "uint256[]",
          "name": "",
          "type": "uint256[]"
        }
      ],
      "payable": false,
      "stateMutability": "view",
      "type": "function"
    }
  ],
  "bytecode": "0x608060405260006003553480156200001657600080fd5b5060405162002ca638038062002ca683398181016040526200003c919081019062000249565b604051806040016040528083815260200182815250600760008201518160000190805190602001906200007192919062000127565b506020820151816001015590505033600160006101000a81548173ffffffffffffffffffffffffffffffffffffffff021916908373ffffffffffffffffffffffffffffffffffffffff1602179055506001600260003373ffffffffffffffffffffffffffffffffffffffff1673ffffffffffffffffffffffffffffffffffffffff16815260200190815260200160002060006101000a81548160ff02191690831515021790555042600081905550505062000358565b828054600181600116156101000203166002900490600052602060002090601f016020900481019282601f106200016a57805160ff19168380011785556200019b565b828001600101855582156200019b579182015b828111156200019a5782518255916020019190600101906200017d565b5b509050620001aa9190620001ae565b5090565b620001d391905b80821115620001cf576000816000905550600101620001b5565b5090565b90565b600082601f830112620001e857600080fd5b8151620001ff620001f982620002d1565b620002a3565b915080825260208301602083018583830111156200021c57600080fd5b6200022983828462000308565b50505092915050565b60008151905062000243816200033e565b92915050565b600080604083850312156200025d57600080fd5b600083015167ffffffffffffffff8111156200027857600080fd5b6200028685828601620001d6565b9250506020620002998582860162000232565b9150509250929050565b6000604051905081810181811067ffffffffffffffff82111715620002c757600080fd5b8060405250919050565b600067ffffffffffffffff821115620002e957600080fd5b601f19601f8301169050602081019050919050565b6000819050919050565b60005b83811015620003285780820151818401526020810190506200030b565b8381111562000338576000848401525b50505050565b6200034981620002fe565b81146200035557600080fd5b50565b61293e80620003686000396000f3fe608060405234801561001057600080fd5b50600436106100b45760003560e01c80639fd43b8e116100715780639fd43b8e14610177578063b95a278c146101a7578063d14e4f1a146101d7578063e08f6f5f146101f3578063e67b1d5d14610211578063ec7122951461022d576100b4565b8063123368af146100b95780631632b663146100d5578063352cf84e146100f157806363f5eace1461010d5780636ac1fda9146101295780638cadda6714610159575b600080fd5b6100d360048036036100ce919081019061227e565b61025d565b005b6100ef60048036036100ea91908101906120cb565b610558565b005b61010b60048036036101069190810190611f2d565b61077e565b005b610127600480360361012291908101906122a7565b610a42565b005b610143600480360361013e919081019061227e565b610e3d565b604051610150919061270e565b60405180910390f35b610161611498565b60405161016e9190612730565b60405180910390f35b610191600480360361018c919081019061227e565b6114a2565b60405161019e91906126ec565b60405180910390f35b6101c160048036036101bc9190810190611f04565b6116f8565b6040516101ce91906126ca565b60405180910390f35b6101f160048036036101ec9190810190611f04565b611822565b005b6101fb6118d7565b6040516102089190612730565b60405180910390f35b61022b60048036036102269190810190611f04565b611974565b005b6102476004803603610242919081019061227e565b611a29565b60405161025491906126a8565b60405180910390f35b600260003373ffffffffffffffffffffffffffffffffffffffff1673ffffffffffffffffffffffffffffffffffffffff16815260200190815260200160002060009054906101000a900460ff166102b357600080fd5b3373ffffffffffffffffffffffffffffffffffffffff166005600083815260200190815260200160002060009054906101000a900473ffffffffffffffffffffffffffffffffffffffff1673ffffffffffffffffffffffffffffffffffffffff161461031e57600080fd5b60046000828152602001908152602001600020600a0160009054906101000a900460ff1661034b57600080fd5b600015156009600083815260200190815260200160002060016009600085815260200190815260200160002080549050038154811061038657fe5b906000526020600020906006020160050160009054906101000a900460ff161515146103b157600080fd5b6001600960008381526020019081526020016000206001600960008581526020019081526020016000208054905003815481106103ea57fe5b906000526020600020906006020160050160006101000a81548160ff021916908315150217905550426009600083815260200190815260200160002060016009600085815260200190815260200160002080549050038154811061044a57fe5b9060005260206000209060060201600401819055506040518060400160405280601981526020017f53746f72656420696e2065766964656e6365206c6f636b6572000000000000008152506004600083815260200190815260200160002060090190805190602001906104be929190611ca1565b506105126001600660003373ffffffffffffffffffffffffffffffffffffffff1673ffffffffffffffffffffffffffffffffffffffff16815260200190815260200160002054611c6e90919063ffffffff16565b600660003373ffffffffffffffffffffffffffffffffffffffff1673ffffffffffffffffffffffffffffffffffffffff1681526020019081526020016000208190555050565b600260003373ffffffffffffffffffffffffffffffffffffffff1673ffffffffffffffffffffffffffffffffffffffff16815260200190815260200160002060009054906101000a900460ff166105ae57600080fd5b600460008a8152602001908152602001600020600a0160009054906101000a900460ff166105db57600080fd5b6040518061016001604052808b81526020018a815260200189815260200188815260200187815260200186815260200185815260200184815260200183815260200182815260200160011515815250600460008b81526020019081526020016000206000820151816000019080519060200190610659929190611d21565b50602082015181600101556040820151816002019080519060200190610680929190611d21565b50606082015181600301908051906020019061069d929190611d21565b5060808201518160040190805190602001906106ba929190611d21565b5060a08201518160050190805190602001906106d7929190611d21565b5060c08201518160060190805190602001906106f4929190611d21565b5060e0820151816007019080519060200190610711929190611d21565b5061010082015181600801908051906020019061072f929190611d21565b5061012082015181600901908051906020019061074d929190611d21565b5061014082015181600a0160006101000a81548160ff02191690831515021790555090505050505050505050505050565b600260003373ffffffffffffffffffffffffffffffffffffffff1673ffffffffffffffffffffffffffffffffffffffff16815260200190815260200160002060009054906101000a900460ff166107d457600080fd5b60001515600460006003548152602001908152602001600020600a0160009054906101000a900460ff1615151461080a57600080fd5b6040518061016001604052808a8152602001600354815260200189815260200188815260200187815260200186815260200185815260200184815260200183815260200182815260200160011515815250600460006003548152602001908152602001600020600082015181600001908051906020019061088c929190611d21565b506020820151816001015560408201518160020190805190602001906108b3929190611d21565b5060608201518160030190805190602001906108d0929190611d21565b5060808201518160040190805190602001906108ed929190611d21565b5060a082015181600501908051906020019061090a929190611d21565b5060c0820151816006019080519060200190610927929190611d21565b5060e0820151816007019080519060200190610944929190611d21565b50610100820151816008019080519060200190610962929190611d21565b50610120820151816009019080519060200190610980929190611d21565b5061014082015181600a0160006101000a81548160ff021916908315150217905550905050600160009054906101000a900473ffffffffffffffffffffffffffffffffffffffff1660056000600354815260200190815260200160002060006101000a81548173ffffffffffffffffffffffffffffffffffffffff021916908373ffffffffffffffffffffffffffffffffffffffff160217905550610a316001600354611c8590919063ffffffff16565b600381905550505050505050505050565b600260003373ffffffffffffffffffffffffffffffffffffffff1673ffffffffffffffffffffffffffffffffffffffff16815260200190815260200160002060009054906101000a900460ff16610a9857600080fd5b60046000838152602001908152602001600020600a0160009054906101000a900460ff16610ac557600080fd5b600160009054906101000a900473ffffffffffffffffffffffffffffffffffffffff1673ffffffffffffffffffffffffffffffffffffffff166005600084815260200190815260200160002060009054906101000a900473ffffffffffffffffffffffffffffffffffffffff1673ffffffffffffffffffffffffffffffffffffffff1614610b5257600080fd5b600960008381526020019081526020016000206040518060c001604052803373ffffffffffffffffffffffffffffffffffffffff168152602001600160009054906101000a900473ffffffffffffffffffffffffffffffffffffffff1673ffffffffffffffffffffffffffffffffffffffff16815260200183815260200142815260200160008152602001600015158152509080600181540180825580915050906001820390600052602060002090600602016000909192909190915060008201518160000160006101000a81548173ffffffffffffffffffffffffffffffffffffffff021916908373ffffffffffffffffffffffffffffffffffffffff16021790555060208201518160010160006101000a81548173ffffffffffffffffffffffffffffffffffffffff021916908373ffffffffffffffffffffffffffffffffffffffff1602179055506040820151816002019080519060200190610cb9929190611d21565b50606082015181600301556080820151816004015560a08201518160050160006101000a81548160ff0219169083151502179055505050506040518060400160405280600b81526020017f436865636b6564206f7574000000000000000000000000000000000000000000815250600460008481526020019081526020016000206009019080519060200190610d50929190611ca1565b50336005600084815260200190815260200160002060006101000a81548173ffffffffffffffffffffffffffffffffffffffff021916908373ffffffffffffffffffffffffffffffffffffffff160217905550610df66001600660003373ffffffffffffffffffffffffffffffffffffffff1673ffffffffffffffffffffffffffffffffffffffff16815260200190815260200160002054611c8590919063ffffffff16565b600660003373ffffffffffffffffffffffffffffffffffffffff1673ffffffffffffffffffffffffffffffffffffffff168152602001908152602001600020819055505050565b610e45611da1565b600260003373ffffffffffffffffffffffffffffffffffffffff1673ffffffffffffffffffffffffffffffffffffffff16815260200190815260200160002060009054906101000a900460ff16610e9b57600080fd5b6004600083815260200190815260200160002060405180610160016040529081600082018054600181600116156101000203166002900480601f016020809104026020016040519081016040528092919081815260200182805460018160011615610100020316600290048015610f535780601f10610f2857610100808354040283529160200191610f53565b820191906000526020600020905b815481529060010190602001808311610f3657829003601f168201915b5050505050815260200160018201548152602001600282018054600181600116156101000203166002900480601f016020809104026020016040519081016040528092919081815260200182805460018160011615610100020316600290048015610fff5780601f10610fd457610100808354040283529160200191610fff565b820191906000526020600020905b815481529060010190602001808311610fe257829003601f168201915b50505050508152602001600382018054600181600116156101000203166002900480601f0160208091040260200160405190810160405280929190818152602001828054600181600116156101000203166002900480156110a15780601f10611076576101008083540402835291602001916110a1565b820191906000526020600020905b81548152906001019060200180831161108457829003601f168201915b50505050508152602001600482018054600181600116156101000203166002900480601f0160208091040260200160405190810160405280929190818152602001828054600181600116156101000203166002900480156111435780601f1061111857610100808354040283529160200191611143565b820191906000526020600020905b81548152906001019060200180831161112657829003601f168201915b50505050508152602001600582018054600181600116156101000203166002900480601f0160208091040260200160405190810160405280929190818152602001828054600181600116156101000203166002900480156111e55780601f106111ba576101008083540402835291602001916111e5565b820191906000526020600020905b8154815290600101906020018083116111c857829003601f168201915b50505050508152602001600682018054600181600116156101000203166002900480601f0160208091040260200160405190810160405280929190818152602001828054600181600116156101000203166002900480156112875780601f1061125c57610100808354040283529160200191611287565b820191906000526020600020905b81548152906001019060200180831161126a57829003601f168201915b50505050508152602001600782018054600181600116156101000203166002900480601f0160208091040260200160405190810160405280929190818152602001828054600181600116156101000203166002900480156113295780601f106112fe57610100808354040283529160200191611329565b820191906000526020600020905b81548152906001019060200180831161130c57829003601f168201915b50505050508152602001600882018054600181600116156101000203166002900480601f0160208091040260200160405190810160405280929190818152602001828054600181600116156101000203166002900480156113cb5780601f106113a0576101008083540402835291602001916113cb565b820191906000526020600020905b8154815290600101906020018083116113ae57829003601f168201915b50505050508152602001600982018054600181600116156101000203166002900480601f01602080910402602001604051908101604052809291908181526020018280546001816001161561010002031660029004801561146d5780601f106114425761010080835404028352916020019161146d565b820191906000526020600020905b81548152906001019060200180831161145057829003601f168201915b50505050508152602001600a820160009054906101000a900460ff1615151515815250509050919050565b6000600354905090565b6114aa611dfd565b600260003373ffffffffffffffffffffffffffffffffffffffff1673ffffffffffffffffffffffffffffffffffffffff16815260200190815260200160002060009054906101000a900460ff1661150057600080fd5b60006009600084815260200190815260200160002080549050141561152457600080fd5b6009600083815260200190815260200160002060016009600085815260200190815260200160002080549050038154811061155b57fe5b90600052602060002090600602016040518060c00160405290816000820160009054906101000a900473ffffffffffffffffffffffffffffffffffffffff1673ffffffffffffffffffffffffffffffffffffffff1673ffffffffffffffffffffffffffffffffffffffff1681526020016001820160009054906101000a900473ffffffffffffffffffffffffffffffffffffffff1673ffffffffffffffffffffffffffffffffffffffff1673ffffffffffffffffffffffffffffffffffffffff168152602001600282018054600181600116156101000203166002900480601f0160208091040260200160405190810160405280929190818152602001828054600181600116156101000203166002900480156116b95780601f1061168e576101008083540402835291602001916116b9565b820191906000526020600020905b81548152906001019060200180831161169c57829003601f168201915b5050505050815260200160038201548152602001600482015481526020016005820160009054906101000a900460ff1615151515815250509050919050565b606080600660008473ffffffffffffffffffffffffffffffffffffffff1673ffffffffffffffffffffffffffffffffffffffff168152602001908152602001600020546040519080825280602002602001820160405280156117695781602001602082028038833980820191505090505b509050600080905060008090505b600354811015611817578473ffffffffffffffffffffffffffffffffffffffff166005600083815260200190815260200160002060009054906101000a900473ffffffffffffffffffffffffffffffffffffffff1673ffffffffffffffffffffffffffffffffffffffff16141561180a57808383815181106117f557fe5b60200260200101818152505081806001019250505b8080600101915050611777565b508192505050919050565b600160009054906101000a900473ffffffffffffffffffffffffffffffffffffffff1673ffffffffffffffffffffffffffffffffffffffff163373ffffffffffffffffffffffffffffffffffffffff161461187c57600080fd5b6000600260008373ffffffffffffffffffffffffffffffffffffffff1673ffffffffffffffffffffffffffffffffffffffff16815260200190815260200160002060006101000a81548160ff02191690831515021790555050565b6000600260003373ffffffffffffffffffffffffffffffffffffffff1673ffffffffffffffffffffffffffffffffffffffff16815260200190815260200160002060009054906101000a900460ff1661192f57600080fd5b600660003373ffffffffffffffffffffffffffffffffffffffff1673ffffffffffffffffffffffffffffffffffffffff16815260200190815260200160002054905090565b600160009054906101000a900473ffffffffffffffffffffffffffffffffffffffff1673ffffffffffffffffffffffffffffffffffffffff163373ffffffffffffffffffffffffffffffffffffffff16146119ce57600080fd5b6001600260008373ffffffffffffffffffffffffffffffffffffffff1673ffffffffffffffffffffffffffffffffffffffff16815260200190815260200160002060006101000a81548160ff02191690831515021790555050565b6060600260003373ffffffffffffffffffffffffffffffffffffffff1673ffffffffffffffffffffffffffffffffffffffff16815260200190815260200160002060009054906101000a900460ff16611a8157600080fd5b60096000838152602001908152602001600020805480602002602001604051908101604052809291908181526020016000905b82821015611c6357838290600052602060002090600602016040518060c00160405290816000820160009054906101000a900473ffffffffffffffffffffffffffffffffffffffff1673ffffffffffffffffffffffffffffffffffffffff1673ffffffffffffffffffffffffffffffffffffffff1681526020016001820160009054906101000a900473ffffffffffffffffffffffffffffffffffffffff1673ffffffffffffffffffffffffffffffffffffffff1673ffffffffffffffffffffffffffffffffffffffff168152602001600282018054600181600116156101000203166002900480601f016020809104026020016040519081016040528092919081815260200182805460018160011615610100020316600290048015611c1c5780601f10611bf157610100808354040283529160200191611c1c565b820191906000526020600020905b815481529060010190602001808311611bff57829003601f168201915b5050505050815260200160038201548152602001600482015481526020016005820160009054906101000a900460ff16151515158152505081526020019060010190611ab4565b505050509050919050565b600082821115611c7a57fe5b818303905092915050565b600080828401905083811015611c9757fe5b8091505092915050565b828054600181600116156101000203166002900490600052602060002090601f016020900481019282601f10611ce257805160ff1916838001178555611d10565b82800160010185558215611d10579182015b82811115611d0f578251825591602001919060010190611cf4565b5b509050611d1d9190611e61565b5090565b828054600181600116156101000203166002900490600052602060002090601f016020900481019282601f10611d6257805160ff1916838001178555611d90565b82800160010185558215611d90579182015b82811115611d8f578251825591602001919060010190611d74565b5b509050611d9d9190611e61565b5090565b604051806101600160405280606081526020016000815260200160608152602001606081526020016060815260200160608152602001606081526020016060815260200160608152602001606081526020016000151581525090565b6040518060c00160405280600073ffffffffffffffffffffffffffffffffffffffff168152602001600073ffffffffffffffffffffffffffffffffffffffff1681526020016060815260200160008152602001600081526020016000151581525090565b611e8391905b80821115611e7f576000816000905550600101611e67565b5090565b90565b600081359050611e95816128cd565b92915050565b600082601f830112611eac57600080fd5b8135611ebf611eba82612778565b61274b565b91508082526020830160208301858383011115611edb57600080fd5b611ee683828461287a565b50505092915050565b600081359050611efe816128e4565b92915050565b600060208284031215611f1657600080fd5b6000611f2484828501611e86565b91505092915050565b60008060008060008060008060006101208a8c031215611f4c57600080fd5b60008a013567ffffffffffffffff811115611f6657600080fd5b611f728c828d01611e9b565b99505060208a013567ffffffffffffffff811115611f8f57600080fd5b611f9b8c828d01611e9b565b98505060408a013567ffffffffffffffff811115611fb857600080fd5b611fc48c828d01611e9b565b97505060608a013567ffffffffffffffff811115611fe157600080fd5b611fed8c828d01611e9b565b96505060808a013567ffffffffffffffff81111561200a57600080fd5b6120168c828d01611e9b565b95505060a08a013567ffffffffffffffff81111561203357600080fd5b61203f8c828d01611e9b565b94505060c08a013567ffffffffffffffff81111561205c57600080fd5b6120688c828d01611e9b565b93505060e08a013567ffffffffffffffff81111561208557600080fd5b6120918c828d01611e9b565b9250506101008a013567ffffffffffffffff8111156120af57600080fd5b6120bb8c828d01611e9b565b9150509295985092959850929598565b6000806000806000806000806000806101408b8d0312156120eb57600080fd5b60008b013567ffffffffffffffff81111561210557600080fd5b6121118d828e01611e9b565b9a505060206121228d828e01611eef565b99505060408b013567ffffffffffffffff81111561213f57600080fd5b61214b8d828e01611e9b565b98505060608b013567ffffffffffffffff81111561216857600080fd5b6121748d828e01611e9b565b97505060808b013567ffffffffffffffff81111561219157600080fd5b61219d8d828e01611e9b565b96505060a08b013567ffffffffffffffff8111156121ba57600080fd5b6121c68d828e01611e9b565b95505060c08b013567ffffffffffffffff8111156121e357600080fd5b6121ef8d828e01611e9b565b94505060e08b013567ffffffffffffffff81111561220c57600080fd5b6122188d828e01611e9b565b9350506101008b013567ffffffffffffffff81111561223657600080fd5b6122428d828e01611e9b565b9250506101208b013567ffffffffffffffff81111561226057600080fd5b61226c8d828e01611e9b565b9150509295989b9194979a5092959850565b60006020828403121561229057600080fd5b600061229e84828501611eef565b91505092915050565b600080604083850312156122ba57600080fd5b60006122c885828601611eef565b925050602083013567ffffffffffffffff8111156122e557600080fd5b6122f185828601611e9b565b9150509250929050565b600061230783836124da565b905092915050565b600061231b838361268a565b60208301905092915050565b61233081612832565b82525050565b6000612341826127c4565b61234b81856127ff565b93508360208202850161235d856127a4565b8060005b85811015612399578484038952815161237a85826122fb565b9450612385836127e5565b925060208a01995050600181019050612361565b50829750879550505050505092915050565b60006123b6826127cf565b6123c08185612810565b93506123cb836127b4565b8060005b838110156123fc5781516123e3888261230f565b97506123ee836127f2565b9250506001810190506123cf565b5085935050505092915050565b61241281612844565b82525050565b6000612423826127da565b61242d8185612821565b935061243d818560208601612889565b612446816128bc565b840191505092915050565b600060c0830160008301516124696000860182612327565b50602083015161247c6020860182612327565b50604083015184820360408601526124948282612418565b91505060608301516124a9606086018261268a565b5060808301516124bc608086018261268a565b5060a08301516124cf60a0860182612409565b508091505092915050565b600060c0830160008301516124f26000860182612327565b5060208301516125056020860182612327565b506040830151848203604086015261251d8282612418565b9150506060830151612532606086018261268a565b506080830151612545608086018261268a565b5060a083015161255860a0860182612409565b508091505092915050565b60006101608301600083015184820360008601526125818282612418565b9150506020830151612596602086018261268a565b50604083015184820360408601526125ae8282612418565b915050606083015184820360608601526125c88282612418565b915050608083015184820360808601526125e28282612418565b91505060a083015184820360a08601526125fc8282612418565b91505060c083015184820360c08601526126168282612418565b91505060e083015184820360e08601526126308282612418565b91505061010083015184820361010086015261264c8282612418565b9150506101208301518482036101208601526126688282612418565b91505061014083015161267f610140860182612409565b508091505092915050565b61269381612870565b82525050565b6126a281612870565b82525050565b600060208201905081810360008301526126c28184612336565b905092915050565b600060208201905081810360008301526126e481846123ab565b905092915050565b600060208201905081810360008301526127068184612451565b905092915050565b600060208201905081810360008301526127288184612563565b905092915050565b60006020820190506127456000830184612699565b92915050565b6000604051905081810181811067ffffffffffffffff8211171561276e57600080fd5b8060405250919050565b600067ffffffffffffffff82111561278f57600080fd5b601f19601f8301169050602081019050919050565b6000819050602082019050919050565b6000819050602082019050919050565b600081519050919050565b600081519050919050565b600081519050919050565b6000602082019050919050565b6000602082019050919050565b600082825260208201905092915050565b600082825260208201905092915050565b600082825260208201905092915050565b600061283d82612850565b9050919050565b60008115159050919050565b600073ffffffffffffffffffffffffffffffffffffffff82169050919050565b6000819050919050565b82818337600083830152505050565b60005b838110156128a757808201518184015260208101905061288c565b838111156128b6576000848401525b50505050565b6000601f19601f8301169050919050565b6128d681612832565b81146128e157600080fd5b50565b6128ed81612870565b81146128f857600080fd5b5056fea365627a7a723158201ef92727766cfac1c8bc584103b9286789f9f58e1bc6e905bc115bbb618c7d536c6578706572696d656e74616cf564736f6c63430005100040",
  "source": "pragma solidity >= 0.5.0;\r\n\r\npragma experimental ABIEncoderV2;\r\n\r\nimport \"./chainofcustody.sol\";\r\n\r\ncontract Case is ChainOfCustody {\r\n\r\n    constructor(string memory _case_name, uint _case_number) public{\r\n        case_info = Case_Info(_case_name, _case_number);\r\n        case_owner = msg.sender;\r\n        authorized_agents[msg.sender] = true; //case_owner is also an authorized agent\r\n        creation_time = now;\r\n    }\r\n\r\n    //Evidence Functions\r\n\r\n    function log_evidence(\r\n        string memory _submitting_agent,\r\n        string memory _description_of_evidence,\r\n        string memory _description_of_offense,\r\n        string memory _victim_name,\r\n        string memory _suspect_name,\r\n        string memory _phone_number,\r\n        string memory _condition,\r\n        string memory _notes,\r\n        string memory _status\r\n    ) only_authorized public {\r\n        require(id_to_evidence[number_of_items].exists == false);\r\n        id_to_evidence[number_of_items] = Evidence(\r\n            _submitting_agent,\r\n            number_of_items,\r\n            _description_of_evidence,\r\n            _description_of_offense,\r\n            _victim_name,\r\n            _suspect_name,\r\n            _phone_number,\r\n            _condition,\r\n            _notes,\r\n            _status,\r\n            true\r\n        );\r\n        evidence_holder[number_of_items] = case_owner;\r\n        number_of_items = number_of_items.add(1);\r\n    }\r\n\r\n    function authorize_agent(address _agent) only_owner public {\r\n        authorized_agents[_agent] = true;\r\n    }\r\n\r\n    function deauthorize_agent(address _agent) only_owner public {\r\n        authorized_agents[_agent] = false;\r\n    }\r\n    \r\n    //check out a piece of evidence from locker\r\n    function check_out(uint _item_number, string memory purpose) only_authorized public {\r\n        require(id_to_evidence[_item_number].exists);//evidence has been logged\r\n        //can only check out evidence if it has been checked in\r\n        require(evidence_holder[_item_number] == case_owner); //evidence is currently checked in\r\n        //Check_Out memory check_out_object = Check_Out(_item_number, personnel, authorizer, purpose, now, 0, false);\r\n        storage_log[_item_number].push(Check_Out(msg.sender, case_owner, purpose, now, 0, false));\r\n        id_to_evidence[_item_number].status = \"Checked out\";\r\n        evidence_holder[_item_number] = msg.sender;\r\n        userEvidenceCount[msg.sender] = userEvidenceCount[msg.sender].add(1);\r\n    }\r\n    \r\n    //sets checkedIn value of most recent check_out object in Evidence storage_log to true\r\n    function check_in(uint _item_number) only_authorized public {\r\n        require(evidence_holder[_item_number] == msg.sender); //can only check in if function caller holds the evidence\r\n        require(id_to_evidence[_item_number].exists); //evidence has been logged\r\n        require(storage_log[_item_number][storage_log[_item_number].length-1].checked_in == false); //evidence has to be checked out\r\n        \r\n        storage_log[_item_number][storage_log[_item_number].length-1].checked_in = true;\r\n        storage_log[_item_number][storage_log[_item_number].length-1].time_checked_in = now;\r\n        id_to_evidence[_item_number].status = \"Stored in evidence locker\";\r\n        userEvidenceCount[msg.sender] = userEvidenceCount[msg.sender].sub(1);\r\n    }\r\n    \r\n    //update an existing piece of evidence (in case of typos or other reasons)\r\n    //should be used only when necessary!\r\n    function updateEvidence(\r\n        string memory _submitting_agent,\r\n        uint _item_number,\r\n        string memory _description_of_evidence,\r\n        string memory _description_of_offense,\r\n        string memory _victim_name,\r\n        string memory _suspect_name,\r\n        string memory _phone_number,\r\n        string memory _condition,\r\n        string memory _notes,\r\n        //Check_Out[] memory _storage_log,\r\n        string memory _status\r\n    ) only_authorized public {\r\n        require(id_to_evidence[_item_number].exists);\r\n        id_to_evidence[_item_number] = Evidence(\r\n            _submitting_agent,\r\n            _item_number,\r\n            _description_of_evidence,\r\n            _description_of_offense,\r\n            _victim_name,\r\n            _suspect_name,\r\n            _phone_number,\r\n            _condition,\r\n            _notes,\r\n            _status,\r\n            true\r\n        );\r\n    }\r\n    \r\n    //getters\r\n\r\n    function item_count() public view returns (uint){\r\n        return number_of_items;\r\n    }\r\n    \r\n    function get_storage_log(uint _item_number) only_authorized public view returns (Check_Out[] memory) {\r\n        return storage_log[_item_number];\r\n    }\r\n    \r\n    function get_current_check_out(uint _item_number) only_authorized public view returns (Check_Out memory) {\r\n        require(storage_log[_item_number].length != 0);\r\n        return storage_log[_item_number][storage_log[_item_number].length-1];\r\n    }\r\n    \r\n    function get_evidence(uint _item_number) only_authorized public view returns (Evidence memory) {\r\n        return id_to_evidence[_item_number];\r\n    }\r\n    \r\n    function get_evidence_count() only_authorized public view returns (uint) {\r\n        return userEvidenceCount[msg.sender];\r\n    }\r\n\r\n    function getEvidenceByOwner(address _owner) external view returns(uint[] memory) {\r\n            uint[] memory result = new uint[](userEvidenceCount[_owner]);\r\n            uint counter = 0;\r\n            for (uint i = 0; i < number_of_items; i++) {\r\n                if (evidence_holder[i] == _owner) {\r\n                result[counter] = i;\r\n                counter++;\r\n                }\r\n            }\r\n            return result;\r\n    }\r\n}\r\n",
  "sourcePath": "C:\\Users\\awhit\\WebstormProjects\\Chain-of-Custody\\contracts\\case.sol",
  "compiler": {
    "name": "solc",
    "version": "0.5.16+commit.9c3226ce.Emscripten.clang"
  },
  "schemaVersion": "3.1.0",
  "updatedAt": "2020-05-03T22:05:14.075Z",
  "networkType": "ethereum",
  "devdoc": {
    "methods": {}
  },
  "userdoc": {
    "methods": {}
  }
}