{
  "contractName": "Case",
  "abi": [
    {
      "inputs": [
        {
          "internalType": "string",
          "name": "_case_name",
          "type": "string"
        },
        {
          "internalType": "uint256",
          "name": "_case_number",
          "type": "uint256"
        }
      ],
      "payable": false,
      "stateMutability": "nonpayable",
      "type": "constructor"
    },
    {
      "constant": false,
      "inputs": [
        {
          "internalType": "string",
          "name": "_submitting_agent",
          "type": "string"
        },
        {
          "internalType": "string",
          "name": "_description_of_evidence",
          "type": "string"
        },
        {
          "internalType": "string",
          "name": "_description_of_offense",
          "type": "string"
        },
        {
          "internalType": "string",
          "name": "_victim_name",
          "type": "string"
        },
        {
          "internalType": "string",
          "name": "_suspect_name",
          "type": "string"
        },
        {
          "internalType": "string",
          "name": "_phone_number",
          "type": "string"
        },
        {
          "internalType": "string",
          "name": "_condition",
          "type": "string"
        },
        {
          "internalType": "string",
          "name": "_notes",
          "type": "string"
        },
        {
          "internalType": "string",
          "name": "_status",
          "type": "string"
        }
      ],
      "name": "log_evidence",
      "outputs": [],
      "payable": false,
      "stateMutability": "nonpayable",
      "type": "function"
    },
    {
      "constant": false,
      "inputs": [
        {
          "internalType": "address",
          "name": "_agent",
          "type": "address"
        }
      ],
      "name": "authorize_authorizer",
      "outputs": [],
      "payable": false,
      "stateMutability": "nonpayable",
      "type": "function"
    },
    {
      "constant": false,
      "inputs": [
        {
          "internalType": "address",
          "name": "_agent",
          "type": "address"
        }
      ],
      "name": "deauthorize_authorizer",
      "outputs": [],
      "payable": false,
      "stateMutability": "nonpayable",
      "type": "function"
    },
    {
      "constant": false,
      "inputs": [
        {
          "internalType": "address",
          "name": "_agent",
          "type": "address"
        }
      ],
      "name": "authorize_agent",
      "outputs": [],
      "payable": false,
      "stateMutability": "nonpayable",
      "type": "function"
    },
    {
      "constant": false,
      "inputs": [
        {
          "internalType": "address",
          "name": "_agent",
          "type": "address"
        }
      ],
      "name": "deauthorize_agent",
      "outputs": [],
      "payable": false,
      "stateMutability": "nonpayable",
      "type": "function"
    },
    {
      "constant": false,
      "inputs": [
        {
          "internalType": "uint256",
          "name": "_item_number",
          "type": "uint256"
        },
        {
          "internalType": "string",
          "name": "purpose",
          "type": "string"
        }
      ],
      "name": "check_out",
      "outputs": [],
      "payable": false,
      "stateMutability": "nonpayable",
      "type": "function"
    },
    {
      "constant": false,
      "inputs": [
        {
          "internalType": "uint256",
          "name": "_item_number",
          "type": "uint256"
        }
      ],
      "name": "check_in",
      "outputs": [],
      "payable": false,
      "stateMutability": "nonpayable",
      "type": "function"
    },
    {
      "constant": false,
      "inputs": [
        {
          "internalType": "string",
          "name": "_submitting_agent",
          "type": "string"
        },
        {
          "internalType": "uint256",
          "name": "_item_number",
          "type": "uint256"
        },
        {
          "internalType": "string",
          "name": "_description_of_evidence",
          "type": "string"
        },
        {
          "internalType": "string",
          "name": "_description_of_offense",
          "type": "string"
        },
        {
          "internalType": "string",
          "name": "_victim_name",
          "type": "string"
        },
        {
          "internalType": "string",
          "name": "_suspect_name",
          "type": "string"
        },
        {
          "internalType": "string",
          "name": "_phone_number",
          "type": "string"
        },
        {
          "internalType": "string",
          "name": "_condition",
          "type": "string"
        },
        {
          "internalType": "string",
          "name": "_notes",
          "type": "string"
        },
        {
          "internalType": "string",
          "name": "_status",
          "type": "string"
        }
      ],
      "name": "updateEvidence",
      "outputs": [],
      "payable": false,
      "stateMutability": "nonpayable",
      "type": "function"
    },
    {
      "constant": true,
      "inputs": [],
      "name": "item_count",
      "outputs": [
        {
          "internalType": "uint256",
          "name": "",
          "type": "uint256"
        }
      ],
      "payable": false,
      "stateMutability": "view",
      "type": "function"
    },
    {
      "constant": true,
      "inputs": [
        {
          "internalType": "uint256",
          "name": "_item_number",
          "type": "uint256"
        }
      ],
      "name": "get_storage_log",
      "outputs": [
        {
          "components": [
            {
              "internalType": "address",
              "name": "personnel",
              "type": "address"
            },
            {
              "internalType": "address",
              "name": "authorizer",
              "type": "address"
            },
            {
              "internalType": "string",
              "name": "purpose",
              "type": "string"
            },
            {
              "internalType": "uint256",
              "name": "time_checked_out",
              "type": "uint256"
            },
            {
              "internalType": "uint256",
              "name": "time_checked_in",
              "type": "uint256"
            },
            {
              "internalType": "bool",
              "name": "checked_in",
              "type": "bool"
            }
          ],
          "internalType": "struct ChainOfCustody.Check_Out[]",
          "name": "",
          "type": "tuple[]"
        }
      ],
      "payable": false,
      "stateMutability": "view",
      "type": "function"
    },
    {
      "constant": true,
      "inputs": [
        {
          "internalType": "uint256",
          "name": "_item_number",
          "type": "uint256"
        }
      ],
      "name": "get_current_check_out",
      "outputs": [
        {
          "components": [
            {
              "internalType": "address",
              "name": "personnel",
              "type": "address"
            },
            {
              "internalType": "address",
              "name": "authorizer",
              "type": "address"
            },
            {
              "internalType": "string",
              "name": "purpose",
              "type": "string"
            },
            {
              "internalType": "uint256",
              "name": "time_checked_out",
              "type": "uint256"
            },
            {
              "internalType": "uint256",
              "name": "time_checked_in",
              "type": "uint256"
            },
            {
              "internalType": "bool",
              "name": "checked_in",
              "type": "bool"
            }
          ],
          "internalType": "struct ChainOfCustody.Check_Out",
          "name": "",
          "type": "tuple"
        }
      ],
      "payable": false,
      "stateMutability": "view",
      "type": "function"
    },
    {
      "constant": true,
      "inputs": [
        {
          "internalType": "uint256",
          "name": "_item_number",
          "type": "uint256"
        }
      ],
      "name": "get_evidence",
      "outputs": [
        {
          "components": [
            {
              "internalType": "string",
              "name": "submitting_agent",
              "type": "string"
            },
            {
              "internalType": "uint256",
              "name": "item_number",
              "type": "uint256"
            },
            {
              "internalType": "string",
              "name": "description_of_evidence",
              "type": "string"
            },
            {
              "internalType": "string",
              "name": "description_of_offense",
              "type": "string"
            },
            {
              "internalType": "string",
              "name": "victim_name",
              "type": "string"
            },
            {
              "internalType": "string",
              "name": "suspect_name",
              "type": "string"
            },
            {
              "internalType": "string",
              "name": "phone_number",
              "type": "string"
            },
            {
              "internalType": "string",
              "name": "condition",
              "type": "string"
            },
            {
              "internalType": "string",
              "name": "notes",
              "type": "string"
            },
            {
              "internalType": "string",
              "name": "status",
              "type": "string"
            },
            {
              "internalType": "bool",
              "name": "exists",
              "type": "bool"
            }
          ],
          "internalType": "struct ChainOfCustody.Evidence",
          "name": "",
          "type": "tuple"
        }
      ],
      "payable": false,
      "stateMutability": "view",
      "type": "function"
    }
  ],
  "bytecode": "0x608060405260006004553480156200001657600080fd5b5060405162002a1c38038062002a1c83398181016040526200003c9190810190620002a1565b60405180604001604052808381526020018281525060076000820151816000019080519060200190620000719291906200017f565b506020820151816001015590505033600160006101000a81548173ffffffffffffffffffffffffffffffffffffffff021916908373ffffffffffffffffffffffffffffffffffffffff1602179055506001600260003373ffffffffffffffffffffffffffffffffffffffff1673ffffffffffffffffffffffffffffffffffffffff16815260200190815260200160002060006101000a81548160ff0219169083151502179055506001600360003373ffffffffffffffffffffffffffffffffffffffff1673ffffffffffffffffffffffffffffffffffffffff16815260200190815260200160002060006101000a81548160ff021916908315150217905550426000819055505050620003b0565b828054600181600116156101000203166002900490600052602060002090601f016020900481019282601f10620001c257805160ff1916838001178555620001f3565b82800160010185558215620001f3579182015b82811115620001f2578251825591602001919060010190620001d5565b5b50905062000202919062000206565b5090565b6200022b91905b80821115620002275760008160009055506001016200020d565b5090565b90565b600082601f8301126200024057600080fd5b815162000257620002518262000329565b620002fb565b915080825260208301602083018583830111156200027457600080fd5b6200028183828462000360565b50505092915050565b6000815190506200029b8162000396565b92915050565b60008060408385031215620002b557600080fd5b600083015167ffffffffffffffff811115620002d057600080fd5b620002de858286016200022e565b9250506020620002f1858286016200028a565b9150509250929050565b6000604051905081810181811067ffffffffffffffff821117156200031f57600080fd5b8060405250919050565b600067ffffffffffffffff8211156200034157600080fd5b601f19601f8301169050602081019050919050565b6000819050919050565b60005b838110156200038057808201518184015260208101905062000363565b8381111562000390576000848401525b50505050565b620003a18162000356565b8114620003ad57600080fd5b50565b61265c80620003c06000396000f3fe608060405234801561001057600080fd5b50600436106100b45760003560e01c80638cadda67116100715780638cadda67146101755780639fd43b8e14610193578063a6521221146101c3578063d14e4f1a146101df578063e67b1d5d146101fb578063ec71229514610217576100b4565b8063123368af146100b95780631632b663146100d5578063352cf84e146100f157806363f5eace1461010d5780636ac1fda91461012957806383547bba14610159575b600080fd5b6100d360048036036100ce919081019061206d565b610247565b005b6100ef60048036036100ea9190810190611eba565b6104af565b005b61010b60048036036101069190810190611d1c565b6106d5565b005b61012760048036036101229190810190612096565b610999565b005b610143600480360361013e919081019061206d565b610cfe565b6040516101509190612465565b60405180910390f35b610173600480360361016e9190810190611cf3565b611303565b005b61017d6113b8565b60405161018a9190612487565b60405180910390f35b6101ad60048036036101a8919081019061206d565b6113c2565b6040516101ba9190612443565b60405180910390f35b6101dd60048036036101d89190810190611cf3565b611618565b005b6101f960048036036101f49190810190611cf3565b6116cd565b005b61021560048036036102109190810190611cf3565b61177e565b005b610231600480360361022c919081019061206d565b61182f565b60405161023e9190612421565b60405180910390f35b600260003373ffffffffffffffffffffffffffffffffffffffff1673ffffffffffffffffffffffffffffffffffffffff16815260200190815260200160002060009054906101000a900460ff1661029d57600080fd5b3373ffffffffffffffffffffffffffffffffffffffff166006600083815260200190815260200160002060009054906101000a900473ffffffffffffffffffffffffffffffffffffffff1673ffffffffffffffffffffffffffffffffffffffff161461030857600080fd5b60056000828152602001908152602001600020600a0160009054906101000a900460ff1661033557600080fd5b60006009600083815260200190815260200160002060016009600085815260200190815260200160002080549050038154811061036e57fe5b906000526020600020906006020160050160006101000a81548160ff021916908315150217905561039e57600080fd5b6001600960008381526020019081526020016000206001600960008581526020019081526020016000208054905003815481106103d757fe5b906000526020600020906006020160050160006101000a81548160ff021916908315150217905550426009600083815260200190815260200160002060016009600085815260200190815260200160002080549050038154811061043757fe5b9060005260206000209060060201600401819055506040518060400160405280601981526020017f53746f72656420696e2065766964656e6365206c6f636b6572000000000000008152506005600083815260200190815260200160002060090190805190602001906104ab929190611a90565b5050565b600260003373ffffffffffffffffffffffffffffffffffffffff1673ffffffffffffffffffffffffffffffffffffffff16815260200190815260200160002060009054906101000a900460ff1661050557600080fd5b600560008a8152602001908152602001600020600a0160009054906101000a900460ff1661053257600080fd5b6040518061016001604052808b81526020018a815260200189815260200188815260200187815260200186815260200185815260200184815260200183815260200182815260200160011515815250600560008b815260200190815260200160002060008201518160000190805190602001906105b0929190611b10565b506020820151816001015560408201518160020190805190602001906105d7929190611b10565b5060608201518160030190805190602001906105f4929190611b10565b506080820151816004019080519060200190610611929190611b10565b5060a082015181600501908051906020019061062e929190611b10565b5060c082015181600601908051906020019061064b929190611b10565b5060e0820151816007019080519060200190610668929190611b10565b50610100820151816008019080519060200190610686929190611b10565b506101208201518160090190805190602001906106a4929190611b10565b5061014082015181600a0160006101000a81548160ff02191690831515021790555090505050505050505050505050565b600260003373ffffffffffffffffffffffffffffffffffffffff1673ffffffffffffffffffffffffffffffffffffffff16815260200190815260200160002060009054906101000a900460ff1661072b57600080fd5b60001515600560006004548152602001908152602001600020600a0160009054906101000a900460ff1615151461076157600080fd5b6040518061016001604052808a815260200160045481526020018981526020018881526020018781526020018681526020018581526020018481526020018381526020018281526020016001151581525060056000600454815260200190815260200160002060008201518160000190805190602001906107e3929190611b10565b5060208201518160010155604082015181600201908051906020019061080a929190611b10565b506060820151816003019080519060200190610827929190611b10565b506080820151816004019080519060200190610844929190611b10565b5060a0820151816005019080519060200190610861929190611b10565b5060c082015181600601908051906020019061087e929190611b10565b5060e082015181600701908051906020019061089b929190611b10565b506101008201518160080190805190602001906108b9929190611b10565b506101208201518160090190805190602001906108d7929190611b10565b5061014082015181600a0160006101000a81548160ff021916908315150217905550905050600160009054906101000a900473ffffffffffffffffffffffffffffffffffffffff1660066000600454815260200190815260200160002060006101000a81548173ffffffffffffffffffffffffffffffffffffffff021916908373ffffffffffffffffffffffffffffffffffffffff1602179055506109886001600454611a7490919063ffffffff16565b600481905550505050505050505050565b600260003373ffffffffffffffffffffffffffffffffffffffff1673ffffffffffffffffffffffffffffffffffffffff16815260200190815260200160002060009054906101000a900460ff166109ef57600080fd5b60056000838152602001908152602001600020600a0160009054906101000a900460ff16610a1c57600080fd5b600160009054906101000a900473ffffffffffffffffffffffffffffffffffffffff1673ffffffffffffffffffffffffffffffffffffffff166006600084815260200190815260200160002060009054906101000a900473ffffffffffffffffffffffffffffffffffffffff1673ffffffffffffffffffffffffffffffffffffffff1614610aa957600080fd5b600960008381526020019081526020016000206040518060c001604052803373ffffffffffffffffffffffffffffffffffffffff168152602001600160009054906101000a900473ffffffffffffffffffffffffffffffffffffffff1673ffffffffffffffffffffffffffffffffffffffff16815260200183815260200142815260200160008152602001600015158152509080600181540180825580915050906001820390600052602060002090600602016000909192909190915060008201518160000160006101000a81548173ffffffffffffffffffffffffffffffffffffffff021916908373ffffffffffffffffffffffffffffffffffffffff16021790555060208201518160010160006101000a81548173ffffffffffffffffffffffffffffffffffffffff021916908373ffffffffffffffffffffffffffffffffffffffff1602179055506040820151816002019080519060200190610c10929190611b10565b50606082015181600301556080820151816004015560a08201518160050160006101000a81548160ff0219169083151502179055505050506040518060400160405280600b81526020017f436865636b6564206f7574000000000000000000000000000000000000000000815250600560008481526020019081526020016000206009019080519060200190610ca7929190611a90565b50336006600084815260200190815260200160002060006101000a81548173ffffffffffffffffffffffffffffffffffffffff021916908373ffffffffffffffffffffffffffffffffffffffff1602179055505050565b610d06611b90565b6005600083815260200190815260200160002060405180610160016040529081600082018054600181600116156101000203166002900480601f016020809104026020016040519081016040528092919081815260200182805460018160011615610100020316600290048015610dbe5780601f10610d9357610100808354040283529160200191610dbe565b820191906000526020600020905b815481529060010190602001808311610da157829003601f168201915b5050505050815260200160018201548152602001600282018054600181600116156101000203166002900480601f016020809104026020016040519081016040528092919081815260200182805460018160011615610100020316600290048015610e6a5780601f10610e3f57610100808354040283529160200191610e6a565b820191906000526020600020905b815481529060010190602001808311610e4d57829003601f168201915b50505050508152602001600382018054600181600116156101000203166002900480601f016020809104026020016040519081016040528092919081815260200182805460018160011615610100020316600290048015610f0c5780601f10610ee157610100808354040283529160200191610f0c565b820191906000526020600020905b815481529060010190602001808311610eef57829003601f168201915b50505050508152602001600482018054600181600116156101000203166002900480601f016020809104026020016040519081016040528092919081815260200182805460018160011615610100020316600290048015610fae5780601f10610f8357610100808354040283529160200191610fae565b820191906000526020600020905b815481529060010190602001808311610f9157829003601f168201915b50505050508152602001600582018054600181600116156101000203166002900480601f0160208091040260200160405190810160405280929190818152602001828054600181600116156101000203166002900480156110505780601f1061102557610100808354040283529160200191611050565b820191906000526020600020905b81548152906001019060200180831161103357829003601f168201915b50505050508152602001600682018054600181600116156101000203166002900480601f0160208091040260200160405190810160405280929190818152602001828054600181600116156101000203166002900480156110f25780601f106110c7576101008083540402835291602001916110f2565b820191906000526020600020905b8154815290600101906020018083116110d557829003601f168201915b50505050508152602001600782018054600181600116156101000203166002900480601f0160208091040260200160405190810160405280929190818152602001828054600181600116156101000203166002900480156111945780601f1061116957610100808354040283529160200191611194565b820191906000526020600020905b81548152906001019060200180831161117757829003601f168201915b50505050508152602001600882018054600181600116156101000203166002900480601f0160208091040260200160405190810160405280929190818152602001828054600181600116156101000203166002900480156112365780601f1061120b57610100808354040283529160200191611236565b820191906000526020600020905b81548152906001019060200180831161121957829003601f168201915b50505050508152602001600982018054600181600116156101000203166002900480601f0160208091040260200160405190810160405280929190818152602001828054600181600116156101000203166002900480156112d85780601f106112ad576101008083540402835291602001916112d8565b820191906000526020600020905b8154815290600101906020018083116112bb57829003601f168201915b50505050508152602001600a820160009054906101000a900460ff1615151515815250509050919050565b3373ffffffffffffffffffffffffffffffffffffffff16600160009054906101000a900473ffffffffffffffffffffffffffffffffffffffff1673ffffffffffffffffffffffffffffffffffffffff161461135d57600080fd5b6001600360008373ffffffffffffffffffffffffffffffffffffffff1673ffffffffffffffffffffffffffffffffffffffff16815260200190815260200160002060006101000a81548160ff02191690831515021790555050565b6000600454905090565b6113ca611bec565b600260003373ffffffffffffffffffffffffffffffffffffffff1673ffffffffffffffffffffffffffffffffffffffff16815260200190815260200160002060009054906101000a900460ff1661142057600080fd5b60006009600084815260200190815260200160002080549050141561144457600080fd5b6009600083815260200190815260200160002060016009600085815260200190815260200160002080549050038154811061147b57fe5b90600052602060002090600602016040518060c00160405290816000820160009054906101000a900473ffffffffffffffffffffffffffffffffffffffff1673ffffffffffffffffffffffffffffffffffffffff1673ffffffffffffffffffffffffffffffffffffffff1681526020016001820160009054906101000a900473ffffffffffffffffffffffffffffffffffffffff1673ffffffffffffffffffffffffffffffffffffffff1673ffffffffffffffffffffffffffffffffffffffff168152602001600282018054600181600116156101000203166002900480601f0160208091040260200160405190810160405280929190818152602001828054600181600116156101000203166002900480156115d95780601f106115ae576101008083540402835291602001916115d9565b820191906000526020600020905b8154815290600101906020018083116115bc57829003601f168201915b5050505050815260200160038201548152602001600482015481526020016005820160009054906101000a900460ff1615151515815250509050919050565b3373ffffffffffffffffffffffffffffffffffffffff16600160009054906101000a900473ffffffffffffffffffffffffffffffffffffffff1673ffffffffffffffffffffffffffffffffffffffff161461167257600080fd5b6000600360008373ffffffffffffffffffffffffffffffffffffffff1673ffffffffffffffffffffffffffffffffffffffff16815260200190815260200160002060006101000a81548160ff02191690831515021790555050565b600360003373ffffffffffffffffffffffffffffffffffffffff1673ffffffffffffffffffffffffffffffffffffffff16815260200190815260200160002060009054906101000a900460ff1661172357600080fd5b6000600260008373ffffffffffffffffffffffffffffffffffffffff1673ffffffffffffffffffffffffffffffffffffffff16815260200190815260200160002060006101000a81548160ff02191690831515021790555050565b600360003373ffffffffffffffffffffffffffffffffffffffff1673ffffffffffffffffffffffffffffffffffffffff16815260200190815260200160002060009054906101000a900460ff166117d457600080fd5b6001600260008373ffffffffffffffffffffffffffffffffffffffff1673ffffffffffffffffffffffffffffffffffffffff16815260200190815260200160002060006101000a81548160ff02191690831515021790555050565b6060600260003373ffffffffffffffffffffffffffffffffffffffff1673ffffffffffffffffffffffffffffffffffffffff16815260200190815260200160002060009054906101000a900460ff1661188757600080fd5b60096000838152602001908152602001600020805480602002602001604051908101604052809291908181526020016000905b82821015611a6957838290600052602060002090600602016040518060c00160405290816000820160009054906101000a900473ffffffffffffffffffffffffffffffffffffffff1673ffffffffffffffffffffffffffffffffffffffff1673ffffffffffffffffffffffffffffffffffffffff1681526020016001820160009054906101000a900473ffffffffffffffffffffffffffffffffffffffff1673ffffffffffffffffffffffffffffffffffffffff1673ffffffffffffffffffffffffffffffffffffffff168152602001600282018054600181600116156101000203166002900480601f016020809104026020016040519081016040528092919081815260200182805460018160011615610100020316600290048015611a225780601f106119f757610100808354040283529160200191611a22565b820191906000526020600020905b815481529060010190602001808311611a0557829003601f168201915b5050505050815260200160038201548152602001600482015481526020016005820160009054906101000a900460ff161515151581525050815260200190600101906118ba565b505050509050919050565b600080828401905083811015611a8657fe5b8091505092915050565b828054600181600116156101000203166002900490600052602060002090601f016020900481019282601f10611ad157805160ff1916838001178555611aff565b82800160010185558215611aff579182015b82811115611afe578251825591602001919060010190611ae3565b5b509050611b0c9190611c50565b5090565b828054600181600116156101000203166002900490600052602060002090601f016020900481019282601f10611b5157805160ff1916838001178555611b7f565b82800160010185558215611b7f579182015b82811115611b7e578251825591602001919060010190611b63565b5b509050611b8c9190611c50565b5090565b604051806101600160405280606081526020016000815260200160608152602001606081526020016060815260200160608152602001606081526020016060815260200160608152602001606081526020016000151581525090565b6040518060c00160405280600073ffffffffffffffffffffffffffffffffffffffff168152602001600073ffffffffffffffffffffffffffffffffffffffff1681526020016060815260200160008152602001600081526020016000151581525090565b611c7291905b80821115611c6e576000816000905550600101611c56565b5090565b90565b600081359050611c84816125eb565b92915050565b600082601f830112611c9b57600080fd5b8135611cae611ca9826124cf565b6124a2565b91508082526020830160208301858383011115611cca57600080fd5b611cd5838284612598565b50505092915050565b600081359050611ced81612602565b92915050565b600060208284031215611d0557600080fd5b6000611d1384828501611c75565b91505092915050565b60008060008060008060008060006101208a8c031215611d3b57600080fd5b60008a013567ffffffffffffffff811115611d5557600080fd5b611d618c828d01611c8a565b99505060208a013567ffffffffffffffff811115611d7e57600080fd5b611d8a8c828d01611c8a565b98505060408a013567ffffffffffffffff811115611da757600080fd5b611db38c828d01611c8a565b97505060608a013567ffffffffffffffff811115611dd057600080fd5b611ddc8c828d01611c8a565b96505060808a013567ffffffffffffffff811115611df957600080fd5b611e058c828d01611c8a565b95505060a08a013567ffffffffffffffff811115611e2257600080fd5b611e2e8c828d01611c8a565b94505060c08a013567ffffffffffffffff811115611e4b57600080fd5b611e578c828d01611c8a565b93505060e08a013567ffffffffffffffff811115611e7457600080fd5b611e808c828d01611c8a565b9250506101008a013567ffffffffffffffff811115611e9e57600080fd5b611eaa8c828d01611c8a565b9150509295985092959850929598565b6000806000806000806000806000806101408b8d031215611eda57600080fd5b60008b013567ffffffffffffffff811115611ef457600080fd5b611f008d828e01611c8a565b9a50506020611f118d828e01611cde565b99505060408b013567ffffffffffffffff811115611f2e57600080fd5b611f3a8d828e01611c8a565b98505060608b013567ffffffffffffffff811115611f5757600080fd5b611f638d828e01611c8a565b97505060808b013567ffffffffffffffff811115611f8057600080fd5b611f8c8d828e01611c8a565b96505060a08b013567ffffffffffffffff811115611fa957600080fd5b611fb58d828e01611c8a565b95505060c08b013567ffffffffffffffff811115611fd257600080fd5b611fde8d828e01611c8a565b94505060e08b013567ffffffffffffffff811115611ffb57600080fd5b6120078d828e01611c8a565b9350506101008b013567ffffffffffffffff81111561202557600080fd5b6120318d828e01611c8a565b9250506101208b013567ffffffffffffffff81111561204f57600080fd5b61205b8d828e01611c8a565b9150509295989b9194979a5092959850565b60006020828403121561207f57600080fd5b600061208d84828501611cde565b91505092915050565b600080604083850312156120a957600080fd5b60006120b785828601611cde565b925050602083013567ffffffffffffffff8111156120d457600080fd5b6120e085828601611c8a565b9150509250929050565b60006120f68383612253565b905092915050565b61210781612550565b82525050565b60006121188261250b565b612122818561252e565b935083602082028501612134856124fb565b8060005b85811015612170578484038952815161215185826120ea565b945061215c83612521565b925060208a01995050600181019050612138565b50829750879550505050505092915050565b61218b81612562565b82525050565b600061219c82612516565b6121a6818561253f565b93506121b68185602086016125a7565b6121bf816125da565b840191505092915050565b600060c0830160008301516121e260008601826120fe565b5060208301516121f560208601826120fe565b506040830151848203604086015261220d8282612191565b91505060608301516122226060860182612403565b5060808301516122356080860182612403565b5060a083015161224860a0860182612182565b508091505092915050565b600060c08301600083015161226b60008601826120fe565b50602083015161227e60208601826120fe565b50604083015184820360408601526122968282612191565b91505060608301516122ab6060860182612403565b5060808301516122be6080860182612403565b5060a08301516122d160a0860182612182565b508091505092915050565b60006101608301600083015184820360008601526122fa8282612191565b915050602083015161230f6020860182612403565b50604083015184820360408601526123278282612191565b915050606083015184820360608601526123418282612191565b9150506080830151848203608086015261235b8282612191565b91505060a083015184820360a08601526123758282612191565b91505060c083015184820360c086015261238f8282612191565b91505060e083015184820360e08601526123a98282612191565b9150506101008301518482036101008601526123c58282612191565b9150506101208301518482036101208601526123e18282612191565b9150506101408301516123f8610140860182612182565b508091505092915050565b61240c8161258e565b82525050565b61241b8161258e565b82525050565b6000602082019050818103600083015261243b818461210d565b905092915050565b6000602082019050818103600083015261245d81846121ca565b905092915050565b6000602082019050818103600083015261247f81846122dc565b905092915050565b600060208201905061249c6000830184612412565b92915050565b6000604051905081810181811067ffffffffffffffff821117156124c557600080fd5b8060405250919050565b600067ffffffffffffffff8211156124e657600080fd5b601f19601f8301169050602081019050919050565b6000819050602082019050919050565b600081519050919050565b600081519050919050565b6000602082019050919050565b600082825260208201905092915050565b600082825260208201905092915050565b600061255b8261256e565b9050919050565b60008115159050919050565b600073ffffffffffffffffffffffffffffffffffffffff82169050919050565b6000819050919050565b82818337600083830152505050565b60005b838110156125c55780820151818401526020810190506125aa565b838111156125d4576000848401525b50505050565b6000601f19601f8301169050919050565b6125f481612550565b81146125ff57600080fd5b50565b61260b8161258e565b811461261657600080fd5b5056fea365627a7a723158207d239596a72de5812ea0471d04b63276dd8197acc663964a17dd680ed64835866c6578706572696d656e74616cf564736f6c63430005100040",
  "source": "pragma solidity >= 0.5.0;\r\n\r\npragma experimental ABIEncoderV2;\r\n\r\nimport \"./chainofcustody.sol\";\r\n\r\ncontract Case is ChainOfCustody {\r\n\r\n    constructor(string memory _case_name, uint _case_number) public{\r\n        case_info = Case_Info(_case_name, _case_number);\r\n        case_owner = msg.sender;\r\n        authorized_agents[msg.sender] = true; //case_owner is also an authorized agent\r\n        authorizers[msg.sender] = true;\r\n        creation_time = now;\r\n    }\r\n\r\n    //Evidence Functions\r\n\r\n    function log_evidence(\r\n        string memory _submitting_agent,\r\n        string memory _description_of_evidence,\r\n        string memory _description_of_offense,\r\n        string memory _victim_name,\r\n        string memory _suspect_name,\r\n        string memory _phone_number,\r\n        string memory _condition,\r\n        string memory _notes,\r\n        string memory _status\r\n    ) only_authorized public {\r\n        require(id_to_evidence[number_of_items].exists == false);\r\n        id_to_evidence[number_of_items] = Evidence(\r\n            _submitting_agent,\r\n            number_of_items,\r\n            _description_of_evidence,\r\n            _description_of_offense,\r\n            _victim_name,\r\n            _suspect_name,\r\n            _phone_number,\r\n            _condition,\r\n            _notes,\r\n            _status,\r\n            true\r\n        );\r\n        evidence_holder[number_of_items] = case_owner;\r\n        number_of_items = number_of_items.add(1);\r\n    }\r\n    \r\n    function authorize_authorizer(address _agent) only_owner public {\r\n        authorizers[_agent] = true;\r\n    }\r\n\r\n    function deauthorize_authorizer(address _agent) only_owner public {\r\n        authorizers[_agent] = false;\r\n    }\r\n\r\n    function authorize_agent(address _agent) only_authorizers public {\r\n        authorized_agents[_agent] = true;\r\n    }\r\n\r\n    function deauthorize_agent(address _agent) only_authorizers public {\r\n        authorized_agents[_agent] = false;\r\n    }\r\n    \r\n    //check out a piece of evidence from locker\r\n    function check_out(uint _item_number, string memory purpose) only_authorized public {\r\n        require(id_to_evidence[_item_number].exists);//evidence has been logged\r\n        //can only check out evidence if it has been checked in\r\n        require(evidence_holder[_item_number] == case_owner); //evidence is currently checked in\r\n        //Check_Out memory check_out_object = Check_Out(_item_number, personnel, authorizer, purpose, now, 0, false);\r\n        storage_log[_item_number].push(Check_Out(msg.sender, case_owner, purpose, now, 0, false));\r\n        id_to_evidence[_item_number].status = \"Checked out\";\r\n        evidence_holder[_item_number] = msg.sender;\r\n    }\r\n    \r\n    //sets checkedIn value of most recent check_out object in Evidence storage_log to true\r\n    function check_in(uint _item_number) only_authorized public {\r\n        require(evidence_holder[_item_number] == msg.sender); //can only check in if function caller holds the evidence\r\n        require(id_to_evidence[_item_number].exists); //evidence has been logged\r\n        require(storage_log[_item_number][storage_log[_item_number].length-1].checked_in = false); //evidence has to be checked out\r\n        \r\n        storage_log[_item_number][storage_log[_item_number].length-1].checked_in = true;\r\n        storage_log[_item_number][storage_log[_item_number].length-1].time_checked_in = now;\r\n        id_to_evidence[_item_number].status = \"Stored in evidence locker\";\r\n    }\r\n    \r\n    //update an existing piece of evidence (in case of typos or other reasons)\r\n    //should be used only when necessary!\r\n    function updateEvidence(\r\n        string memory _submitting_agent,\r\n        uint _item_number,\r\n        string memory _description_of_evidence,\r\n        string memory _description_of_offense,\r\n        string memory _victim_name,\r\n        string memory _suspect_name,\r\n        string memory _phone_number,\r\n        string memory _condition,\r\n        string memory _notes,\r\n        //Check_Out[] memory _storage_log,\r\n        string memory _status\r\n    ) only_authorized public {\r\n        require(id_to_evidence[_item_number].exists);\r\n        id_to_evidence[_item_number] = Evidence(\r\n            _submitting_agent,\r\n            _item_number,\r\n            _description_of_evidence,\r\n            _description_of_offense,\r\n            _victim_name,\r\n            _suspect_name,\r\n            _phone_number,\r\n            _condition,\r\n            _notes,\r\n            _status,\r\n            true\r\n        );\r\n    }\r\n    \r\n    //getters\r\n\r\n    function item_count() public view returns (uint){\r\n        return number_of_items;\r\n    }\r\n    \r\n    function get_storage_log(uint _item_number) only_authorized public view returns (Check_Out[] memory) {\r\n        return storage_log[_item_number];\r\n    }\r\n    \r\n    function get_current_check_out(uint _item_number) only_authorized public view returns (Check_Out memory) {\r\n        require(storage_log[_item_number].length != 0);\r\n        return storage_log[_item_number][storage_log[_item_number].length-1];\r\n    }\r\n    \r\n    function get_evidence(uint _item_number) public view returns (Evidence memory) {\r\n        return id_to_evidence[_item_number];\r\n    }\r\n}\r\n",
  "sourcePath": "C:\\Users\\smonk\\WebstormProjects\\Chain-of-Custody\\contracts\\case.sol",
  "compiler": {
    "name": "solc",
    "version": "0.5.16+commit.9c3226ce.Emscripten.clang"
  },
  "schemaVersion": "3.1.0",
  "updatedAt": "2020-05-03T21:57:42.933Z",
  "networkType": "ethereum",
  "devdoc": {
    "methods": {}
  },
  "userdoc": {
    "methods": {}
  }
}