{
  "contractName": "Case",
  "abi": [
    {
      "inputs": [
        {
          "internalType": "string",
          "name": "_case_name",
          "type": "string"
        },
        {
          "internalType": "uint256",
          "name": "_case_number",
          "type": "uint256"
        }
      ],
      "payable": false,
      "stateMutability": "nonpayable",
      "type": "constructor"
    },
    {
      "constant": false,
      "inputs": [
        {
          "internalType": "string",
          "name": "_submitting_agent",
          "type": "string"
        },
        {
          "internalType": "string",
          "name": "_description_of_evidence",
          "type": "string"
        },
        {
          "internalType": "string",
          "name": "_description_of_offense",
          "type": "string"
        },
        {
          "internalType": "string",
          "name": "_victim_name",
          "type": "string"
        },
        {
          "internalType": "string",
          "name": "_suspect_name",
          "type": "string"
        },
        {
          "internalType": "string",
          "name": "_phone_number",
          "type": "string"
        },
        {
          "internalType": "string",
          "name": "_condition",
          "type": "string"
        },
        {
          "internalType": "string",
          "name": "_notes",
          "type": "string"
        }
      ],
      "name": "log_evidence",
      "outputs": [],
      "payable": false,
      "stateMutability": "nonpayable",
      "type": "function"
    },
    {
      "constant": false,
      "inputs": [
        {
          "internalType": "address",
          "name": "_agent",
          "type": "address"
        }
      ],
      "name": "authorize_agent",
      "outputs": [],
      "payable": false,
      "stateMutability": "nonpayable",
      "type": "function"
    },
    {
      "constant": false,
      "inputs": [
        {
          "internalType": "address",
          "name": "_agent",
          "type": "address"
        }
      ],
      "name": "deauthorize_agent",
      "outputs": [],
      "payable": false,
      "stateMutability": "nonpayable",
      "type": "function"
    },
    {
      "constant": false,
      "inputs": [
        {
          "internalType": "uint256",
          "name": "_item_number",
          "type": "uint256"
        },
        {
          "internalType": "string",
          "name": "purpose",
          "type": "string"
        }
      ],
      "name": "check_out",
      "outputs": [],
      "payable": false,
      "stateMutability": "nonpayable",
      "type": "function"
    },
    {
      "constant": false,
      "inputs": [
        {
          "internalType": "uint256",
          "name": "_item_number",
          "type": "uint256"
        }
      ],
      "name": "check_in",
      "outputs": [],
      "payable": false,
      "stateMutability": "nonpayable",
      "type": "function"
    },
    {
      "constant": false,
      "inputs": [
        {
          "internalType": "string",
          "name": "_submitting_agent",
          "type": "string"
        },
        {
          "internalType": "uint256",
          "name": "_item_number",
          "type": "uint256"
        },
        {
          "internalType": "string",
          "name": "_description_of_evidence",
          "type": "string"
        },
        {
          "internalType": "string",
          "name": "_description_of_offense",
          "type": "string"
        },
        {
          "internalType": "string",
          "name": "_victim_name",
          "type": "string"
        },
        {
          "internalType": "string",
          "name": "_suspect_name",
          "type": "string"
        },
        {
          "internalType": "string",
          "name": "_phone_number",
          "type": "string"
        },
        {
          "internalType": "string",
          "name": "_condition",
          "type": "string"
        },
        {
          "internalType": "string",
          "name": "_notes",
          "type": "string"
        }
      ],
      "name": "updateEvidence",
      "outputs": [],
      "payable": false,
      "stateMutability": "nonpayable",
      "type": "function"
    },
    {
      "constant": true,
      "inputs": [],
      "name": "item_count",
      "outputs": [
        {
          "internalType": "uint256",
          "name": "",
          "type": "uint256"
        }
      ],
      "payable": false,
      "stateMutability": "view",
      "type": "function"
    },
    {
      "constant": true,
      "inputs": [
        {
          "internalType": "uint256",
          "name": "_item_number",
          "type": "uint256"
        }
      ],
      "name": "get_storage_log",
      "outputs": [
        {
          "components": [
            {
              "internalType": "address",
              "name": "personnel",
              "type": "address"
            },
            {
              "internalType": "address",
              "name": "authorizer",
              "type": "address"
            },
            {
              "internalType": "string",
              "name": "purpose",
              "type": "string"
            },
            {
              "internalType": "uint256",
              "name": "time_checked_out",
              "type": "uint256"
            },
            {
              "internalType": "uint256",
              "name": "time_checked_in",
              "type": "uint256"
            },
            {
              "internalType": "bool",
              "name": "checked_in",
              "type": "bool"
            }
          ],
          "internalType": "struct ChainOfCustody.Check_Out[]",
          "name": "",
          "type": "tuple[]"
        }
      ],
      "payable": false,
      "stateMutability": "view",
      "type": "function"
    },
    {
      "constant": true,
      "inputs": [
        {
          "internalType": "uint256",
          "name": "_item_number",
          "type": "uint256"
        }
      ],
      "name": "get_current_check_out",
      "outputs": [
        {
          "components": [
            {
              "internalType": "address",
              "name": "personnel",
              "type": "address"
            },
            {
              "internalType": "address",
              "name": "authorizer",
              "type": "address"
            },
            {
              "internalType": "string",
              "name": "purpose",
              "type": "string"
            },
            {
              "internalType": "uint256",
              "name": "time_checked_out",
              "type": "uint256"
            },
            {
              "internalType": "uint256",
              "name": "time_checked_in",
              "type": "uint256"
            },
            {
              "internalType": "bool",
              "name": "checked_in",
              "type": "bool"
            }
          ],
          "internalType": "struct ChainOfCustody.Check_Out",
          "name": "",
          "type": "tuple"
        }
      ],
      "payable": false,
      "stateMutability": "view",
      "type": "function"
    },
    {
      "constant": true,
      "inputs": [
        {
          "internalType": "uint256",
          "name": "_item_number",
          "type": "uint256"
        }
      ],
      "name": "get_evidence",
      "outputs": [
        {
          "components": [
            {
              "internalType": "string",
              "name": "submitting_agent",
              "type": "string"
            },
            {
              "internalType": "uint256",
              "name": "item_number",
              "type": "uint256"
            },
            {
              "internalType": "string",
              "name": "description_of_evidence",
              "type": "string"
            },
            {
              "internalType": "string",
              "name": "description_of_offense",
              "type": "string"
            },
            {
              "internalType": "string",
              "name": "victim_name",
              "type": "string"
            },
            {
              "internalType": "string",
              "name": "suspect_name",
              "type": "string"
            },
            {
              "internalType": "string",
              "name": "phone_number",
              "type": "string"
            },
            {
              "internalType": "string",
              "name": "condition",
              "type": "string"
            },
            {
              "internalType": "string",
              "name": "notes",
              "type": "string"
            },
            {
              "internalType": "bool",
              "name": "checked_in",
              "type": "bool"
            },
            {
              "internalType": "bool",
              "name": "exists",
              "type": "bool"
            }
          ],
          "internalType": "struct ChainOfCustody.Evidence",
          "name": "",
          "type": "tuple"
        }
      ],
      "payable": false,
      "stateMutability": "view",
      "type": "function"
    },
    {
      "constant": true,
      "inputs": [],
      "name": "get_evidence_count",
      "outputs": [
        {
          "internalType": "uint256",
          "name": "",
          "type": "uint256"
        }
      ],
      "payable": false,
      "stateMutability": "view",
      "type": "function"
    },
    {
      "constant": true,
      "inputs": [
        {
          "internalType": "address",
          "name": "_owner",
          "type": "address"
        }
      ],
      "name": "getEvidenceByOwner",
      "outputs": [
        {
          "internalType": "uint256[]",
          "name": "",
          "type": "uint256[]"
        }
      ],
      "payable": false,
      "stateMutability": "view",
      "type": "function"
    },
    {
      "constant": true,
      "inputs": [
        {
          "internalType": "address",
          "name": "agent",
          "type": "address"
        }
      ],
      "name": "getIfAgentAuthorized",
      "outputs": [
        {
          "internalType": "bool",
          "name": "",
          "type": "bool"
        }
      ],
      "payable": false,
      "stateMutability": "view",
      "type": "function"
    },
    {
      "constant": true,
      "inputs": [
        {
          "internalType": "uint256",
          "name": "_item_number",
          "type": "uint256"
        }
      ],
      "name": "getIfCheckedIn",
      "outputs": [
        {
          "internalType": "bool",
          "name": "",
          "type": "bool"
        }
      ],
      "payable": false,
      "stateMutability": "view",
      "type": "function"
    }
  ],
  "bytecode": "0x608060405260006003553480156200001657600080fd5b5060405162002ba238038062002ba283398181016040526200003c919081019062000249565b604051806040016040528083815260200182815250600760008201518160000190805190602001906200007192919062000127565b506020820151816001015590505033600160006101000a81548173ffffffffffffffffffffffffffffffffffffffff021916908373ffffffffffffffffffffffffffffffffffffffff1602179055506001600260003373ffffffffffffffffffffffffffffffffffffffff1673ffffffffffffffffffffffffffffffffffffffff16815260200190815260200160002060006101000a81548160ff02191690831515021790555042600081905550505062000358565b828054600181600116156101000203166002900490600052602060002090601f016020900481019282601f106200016a57805160ff19168380011785556200019b565b828001600101855582156200019b579182015b828111156200019a5782518255916020019190600101906200017d565b5b509050620001aa9190620001ae565b5090565b620001d391905b80821115620001cf576000816000905550600101620001b5565b5090565b90565b600082601f830112620001e857600080fd5b8151620001ff620001f982620002d1565b620002a3565b915080825260208301602083018583830111156200021c57600080fd5b6200022983828462000308565b50505092915050565b60008151905062000243816200033e565b92915050565b600080604083850312156200025d57600080fd5b600083015167ffffffffffffffff8111156200027857600080fd5b6200028685828601620001d6565b9250506020620002998582860162000232565b9150509250929050565b6000604051905081810181811067ffffffffffffffff82111715620002c757600080fd5b8060405250919050565b600067ffffffffffffffff821115620002e957600080fd5b601f19601f8301169050602081019050919050565b6000819050919050565b60005b83811015620003285780820151818401526020810190506200030b565b8381111562000338576000848401525b50505050565b6200034981620002fe565b81146200035557600080fd5b50565b61283a80620003686000396000f3fe608060405234801561001057600080fd5b50600436106100ea5760003560e01c80639a2e912a1161008c578063d14e4f1a11610066578063d14e4f1a1461026d578063e08f6f5f14610289578063e67b1d5d146102a7578063ec712295146102c3576100ea565b80639a2e912a146101dd5780639fd43b8e1461020d578063b95a278c1461023d576100ea565b806345807f68116100c857806345807f681461015757806363f5eace146101735780636ac1fda91461018f5780638cadda67146101bf576100ea565b806310f6b24f146100ef578063123368af1461011f57806318090bf31461013b575b600080fd5b61010960048036036101049190810190611e36565b6102f3565b60405161011691906125cd565b60405180910390f35b61013960048036036101349190810190612157565b610349565b005b61015560048036036101509190810190611fd1565b610613565b005b610171600480360361016c9190810190611e5f565b610860565b005b61018d60048036036101889190810190612180565b610b29565b005b6101a960048036036101a49190810190612157565b610ef3565b6040516101b6919061260a565b60405180910390f35b6101c7611471565b6040516101d4919061262c565b60405180910390f35b6101f760048036036101f29190810190612157565b61147b565b60405161020491906125cd565b60405180910390f35b61022760048036036102229190810190612157565b6114a8565b60405161023491906125e8565b60405180910390f35b61025760048036036102529190810190611e36565b6116a8565b60405161026491906125ab565b60405180910390f35b61028760048036036102829190810190611e36565b6117d2565b005b610291611887565b60405161029e919061262c565b60405180910390f35b6102c160048036036102bc9190810190611e36565b611924565b005b6102dd60048036036102d89190810190612157565b6119d9565b6040516102ea9190612589565b60405180910390f35b6000600260008373ffffffffffffffffffffffffffffffffffffffff1673ffffffffffffffffffffffffffffffffffffffff16815260200190815260200160002060009054906101000a900460ff169050919050565b600260003373ffffffffffffffffffffffffffffffffffffffff1673ffffffffffffffffffffffffffffffffffffffff16815260200190815260200160002060009054906101000a900460ff1661039f57600080fd5b3373ffffffffffffffffffffffffffffffffffffffff166005600083815260200190815260200160002060009054906101000a900473ffffffffffffffffffffffffffffffffffffffff1673ffffffffffffffffffffffffffffffffffffffff161461040a57600080fd5b6004600082815260200190815260200160002060090160019054906101000a900460ff1661043757600080fd5b600015156009600083815260200190815260200160002060016009600085815260200190815260200160002080549050038154811061047257fe5b906000526020600020906006020160050160009054906101000a900460ff1615151461049d57600080fd5b6001600960008381526020019081526020016000206001600960008581526020019081526020016000208054905003815481106104d657fe5b906000526020600020906006020160050160006101000a81548160ff021916908315150217905550426009600083815260200190815260200160002060016009600085815260200190815260200160002080549050038154811061053657fe5b90600052602060002090600602016004018190555060016004600083815260200190815260200160002060090160006101000a81548160ff0219169083151502179055506105cd6001600660003373ffffffffffffffffffffffffffffffffffffffff1673ffffffffffffffffffffffffffffffffffffffff16815260200190815260200160002054611c1e90919063ffffffff16565b600660003373ffffffffffffffffffffffffffffffffffffffff1673ffffffffffffffffffffffffffffffffffffffff1681526020019081526020016000208190555050565b600260003373ffffffffffffffffffffffffffffffffffffffff1673ffffffffffffffffffffffffffffffffffffffff16815260200190815260200160002060009054906101000a900460ff1661066957600080fd5b6004600089815260200190815260200160002060090160019054906101000a900460ff1661069657600080fd5b6040518061016001604052808a8152602001898152602001888152602001878152602001868152602001858152602001848152602001838152602001828152602001600460008b815260200190815260200160002060090160009054906101000a900460ff161515815260200160011515815250600460008a81526020019081526020016000206000820151816000019080519060200190610739929190611c51565b50602082015181600101556040820151816002019080519060200190610760929190611c51565b50606082015181600301908051906020019061077d929190611c51565b50608082015181600401908051906020019061079a929190611c51565b5060a08201518160050190805190602001906107b7929190611c51565b5060c08201518160060190805190602001906107d4929190611c51565b5060e08201518160070190805190602001906107f1929190611c51565b5061010082015181600801908051906020019061080f929190611c51565b506101208201518160090160006101000a81548160ff0219169083151502179055506101408201518160090160016101000a81548160ff021916908315150217905550905050505050505050505050565b600260003373ffffffffffffffffffffffffffffffffffffffff1673ffffffffffffffffffffffffffffffffffffffff16815260200190815260200160002060009054906101000a900460ff166108b657600080fd5b6000151560046000600354815260200190815260200160002060090160019054906101000a900460ff161515146108ec57600080fd5b6040518061016001604052808981526020016003548152602001888152602001878152602001868152602001858152602001848152602001838152602001828152602001600115158152602001600115158152506004600060035481526020019081526020016000206000820151816000019080519060200190610971929190611c51565b50602082015181600101556040820151816002019080519060200190610998929190611c51565b5060608201518160030190805190602001906109b5929190611c51565b5060808201518160040190805190602001906109d2929190611c51565b5060a08201518160050190805190602001906109ef929190611c51565b5060c0820151816006019080519060200190610a0c929190611c51565b5060e0820151816007019080519060200190610a29929190611c51565b50610100820151816008019080519060200190610a47929190611c51565b506101208201518160090160006101000a81548160ff0219169083151502179055506101408201518160090160016101000a81548160ff021916908315150217905550905050600160009054906101000a900473ffffffffffffffffffffffffffffffffffffffff1660056000600354815260200190815260200160002060006101000a81548173ffffffffffffffffffffffffffffffffffffffff021916908373ffffffffffffffffffffffffffffffffffffffff160217905550610b196001600354611c3590919063ffffffff16565b6003819055505050505050505050565b600260003373ffffffffffffffffffffffffffffffffffffffff1673ffffffffffffffffffffffffffffffffffffffff16815260200190815260200160002060009054906101000a900460ff16610b7f57600080fd5b6004600083815260200190815260200160002060090160019054906101000a900460ff16610bac57600080fd5b600160009054906101000a900473ffffffffffffffffffffffffffffffffffffffff1673ffffffffffffffffffffffffffffffffffffffff166005600084815260200190815260200160002060009054906101000a900473ffffffffffffffffffffffffffffffffffffffff1673ffffffffffffffffffffffffffffffffffffffff1614610c3957600080fd5b600960008381526020019081526020016000206040518060c001604052803373ffffffffffffffffffffffffffffffffffffffff168152602001600160009054906101000a900473ffffffffffffffffffffffffffffffffffffffff1673ffffffffffffffffffffffffffffffffffffffff16815260200183815260200142815260200160008152602001600015158152509080600181540180825580915050906001820390600052602060002090600602016000909192909190915060008201518160000160006101000a81548173ffffffffffffffffffffffffffffffffffffffff021916908373ffffffffffffffffffffffffffffffffffffffff16021790555060208201518160010160006101000a81548173ffffffffffffffffffffffffffffffffffffffff021916908373ffffffffffffffffffffffffffffffffffffffff1602179055506040820151816002019080519060200190610da0929190611c51565b50606082015181600301556080820151816004015560a08201518160050160006101000a81548160ff02191690831515021790555050505060006004600084815260200190815260200160002060090160006101000a81548160ff021916908315150217905550336005600084815260200190815260200160002060006101000a81548173ffffffffffffffffffffffffffffffffffffffff021916908373ffffffffffffffffffffffffffffffffffffffff160217905550610eac6001600660003373ffffffffffffffffffffffffffffffffffffffff1673ffffffffffffffffffffffffffffffffffffffff16815260200190815260200160002054611c3590919063ffffffff16565b600660003373ffffffffffffffffffffffffffffffffffffffff1673ffffffffffffffffffffffffffffffffffffffff168152602001908152602001600020819055505050565b610efb611cd1565b6004600083815260200190815260200160002060405180610160016040529081600082018054600181600116156101000203166002900480601f016020809104026020016040519081016040528092919081815260200182805460018160011615610100020316600290048015610fb35780601f10610f8857610100808354040283529160200191610fb3565b820191906000526020600020905b815481529060010190602001808311610f9657829003601f168201915b5050505050815260200160018201548152602001600282018054600181600116156101000203166002900480601f01602080910402602001604051908101604052809291908181526020018280546001816001161561010002031660029004801561105f5780601f106110345761010080835404028352916020019161105f565b820191906000526020600020905b81548152906001019060200180831161104257829003601f168201915b50505050508152602001600382018054600181600116156101000203166002900480601f0160208091040260200160405190810160405280929190818152602001828054600181600116156101000203166002900480156111015780601f106110d657610100808354040283529160200191611101565b820191906000526020600020905b8154815290600101906020018083116110e457829003601f168201915b50505050508152602001600482018054600181600116156101000203166002900480601f0160208091040260200160405190810160405280929190818152602001828054600181600116156101000203166002900480156111a35780601f10611178576101008083540402835291602001916111a3565b820191906000526020600020905b81548152906001019060200180831161118657829003601f168201915b50505050508152602001600582018054600181600116156101000203166002900480601f0160208091040260200160405190810160405280929190818152602001828054600181600116156101000203166002900480156112455780601f1061121a57610100808354040283529160200191611245565b820191906000526020600020905b81548152906001019060200180831161122857829003601f168201915b50505050508152602001600682018054600181600116156101000203166002900480601f0160208091040260200160405190810160405280929190818152602001828054600181600116156101000203166002900480156112e75780601f106112bc576101008083540402835291602001916112e7565b820191906000526020600020905b8154815290600101906020018083116112ca57829003601f168201915b50505050508152602001600782018054600181600116156101000203166002900480601f0160208091040260200160405190810160405280929190818152602001828054600181600116156101000203166002900480156113895780601f1061135e57610100808354040283529160200191611389565b820191906000526020600020905b81548152906001019060200180831161136c57829003601f168201915b50505050508152602001600882018054600181600116156101000203166002900480601f01602080910402602001604051908101604052809291908181526020018280546001816001161561010002031660029004801561142b5780601f106114005761010080835404028352916020019161142b565b820191906000526020600020905b81548152906001019060200180831161140e57829003601f168201915b505050505081526020016009820160009054906101000a900460ff161515151581526020016009820160019054906101000a900460ff1615151515815250509050919050565b6000600354905090565b60006004600083815260200190815260200160002060090160009054906101000a900460ff169050919050565b6114b0611d2f565b6000600960008481526020019081526020016000208054905014156114d457600080fd5b6009600083815260200190815260200160002060016009600085815260200190815260200160002080549050038154811061150b57fe5b90600052602060002090600602016040518060c00160405290816000820160009054906101000a900473ffffffffffffffffffffffffffffffffffffffff1673ffffffffffffffffffffffffffffffffffffffff1673ffffffffffffffffffffffffffffffffffffffff1681526020016001820160009054906101000a900473ffffffffffffffffffffffffffffffffffffffff1673ffffffffffffffffffffffffffffffffffffffff1673ffffffffffffffffffffffffffffffffffffffff168152602001600282018054600181600116156101000203166002900480601f0160208091040260200160405190810160405280929190818152602001828054600181600116156101000203166002900480156116695780601f1061163e57610100808354040283529160200191611669565b820191906000526020600020905b81548152906001019060200180831161164c57829003601f168201915b5050505050815260200160038201548152602001600482015481526020016005820160009054906101000a900460ff1615151515815250509050919050565b606080600660008473ffffffffffffffffffffffffffffffffffffffff1673ffffffffffffffffffffffffffffffffffffffff168152602001908152602001600020546040519080825280602002602001820160405280156117195781602001602082028038833980820191505090505b509050600080905060008090505b6003548110156117c7578473ffffffffffffffffffffffffffffffffffffffff166005600083815260200190815260200160002060009054906101000a900473ffffffffffffffffffffffffffffffffffffffff1673ffffffffffffffffffffffffffffffffffffffff1614156117ba57808383815181106117a557fe5b60200260200101818152505081806001019250505b8080600101915050611727565b508192505050919050565b600160009054906101000a900473ffffffffffffffffffffffffffffffffffffffff1673ffffffffffffffffffffffffffffffffffffffff163373ffffffffffffffffffffffffffffffffffffffff161461182c57600080fd5b6000600260008373ffffffffffffffffffffffffffffffffffffffff1673ffffffffffffffffffffffffffffffffffffffff16815260200190815260200160002060006101000a81548160ff02191690831515021790555050565b6000600260003373ffffffffffffffffffffffffffffffffffffffff1673ffffffffffffffffffffffffffffffffffffffff16815260200190815260200160002060009054906101000a900460ff166118df57600080fd5b600660003373ffffffffffffffffffffffffffffffffffffffff1673ffffffffffffffffffffffffffffffffffffffff16815260200190815260200160002054905090565b600160009054906101000a900473ffffffffffffffffffffffffffffffffffffffff1673ffffffffffffffffffffffffffffffffffffffff163373ffffffffffffffffffffffffffffffffffffffff161461197e57600080fd5b6001600260008373ffffffffffffffffffffffffffffffffffffffff1673ffffffffffffffffffffffffffffffffffffffff16815260200190815260200160002060006101000a81548160ff02191690831515021790555050565b6060600260003373ffffffffffffffffffffffffffffffffffffffff1673ffffffffffffffffffffffffffffffffffffffff16815260200190815260200160002060009054906101000a900460ff16611a3157600080fd5b60096000838152602001908152602001600020805480602002602001604051908101604052809291908181526020016000905b82821015611c1357838290600052602060002090600602016040518060c00160405290816000820160009054906101000a900473ffffffffffffffffffffffffffffffffffffffff1673ffffffffffffffffffffffffffffffffffffffff1673ffffffffffffffffffffffffffffffffffffffff1681526020016001820160009054906101000a900473ffffffffffffffffffffffffffffffffffffffff1673ffffffffffffffffffffffffffffffffffffffff1673ffffffffffffffffffffffffffffffffffffffff168152602001600282018054600181600116156101000203166002900480601f016020809104026020016040519081016040528092919081815260200182805460018160011615610100020316600290048015611bcc5780601f10611ba157610100808354040283529160200191611bcc565b820191906000526020600020905b815481529060010190602001808311611baf57829003601f168201915b5050505050815260200160038201548152602001600482015481526020016005820160009054906101000a900460ff16151515158152505081526020019060010190611a64565b505050509050919050565b600082821115611c2a57fe5b818303905092915050565b600080828401905083811015611c4757fe5b8091505092915050565b828054600181600116156101000203166002900490600052602060002090601f016020900481019282601f10611c9257805160ff1916838001178555611cc0565b82800160010185558215611cc0579182015b82811115611cbf578251825591602001919060010190611ca4565b5b509050611ccd9190611d93565b5090565b6040518061016001604052806060815260200160008152602001606081526020016060815260200160608152602001606081526020016060815260200160608152602001606081526020016000151581526020016000151581525090565b6040518060c00160405280600073ffffffffffffffffffffffffffffffffffffffff168152602001600073ffffffffffffffffffffffffffffffffffffffff1681526020016060815260200160008152602001600081526020016000151581525090565b611db591905b80821115611db1576000816000905550600101611d99565b5090565b90565b600081359050611dc7816127c9565b92915050565b600082601f830112611dde57600080fd5b8135611df1611dec82612674565b612647565b91508082526020830160208301858383011115611e0d57600080fd5b611e18838284612776565b50505092915050565b600081359050611e30816127e0565b92915050565b600060208284031215611e4857600080fd5b6000611e5684828501611db8565b91505092915050565b600080600080600080600080610100898b031215611e7c57600080fd5b600089013567ffffffffffffffff811115611e9657600080fd5b611ea28b828c01611dcd565b985050602089013567ffffffffffffffff811115611ebf57600080fd5b611ecb8b828c01611dcd565b975050604089013567ffffffffffffffff811115611ee857600080fd5b611ef48b828c01611dcd565b965050606089013567ffffffffffffffff811115611f1157600080fd5b611f1d8b828c01611dcd565b955050608089013567ffffffffffffffff811115611f3a57600080fd5b611f468b828c01611dcd565b94505060a089013567ffffffffffffffff811115611f6357600080fd5b611f6f8b828c01611dcd565b93505060c089013567ffffffffffffffff811115611f8c57600080fd5b611f988b828c01611dcd565b92505060e089013567ffffffffffffffff811115611fb557600080fd5b611fc18b828c01611dcd565b9150509295985092959890939650565b60008060008060008060008060006101208a8c031215611ff057600080fd5b60008a013567ffffffffffffffff81111561200a57600080fd5b6120168c828d01611dcd565b99505060206120278c828d01611e21565b98505060408a013567ffffffffffffffff81111561204457600080fd5b6120508c828d01611dcd565b97505060608a013567ffffffffffffffff81111561206d57600080fd5b6120798c828d01611dcd565b96505060808a013567ffffffffffffffff81111561209657600080fd5b6120a28c828d01611dcd565b95505060a08a013567ffffffffffffffff8111156120bf57600080fd5b6120cb8c828d01611dcd565b94505060c08a013567ffffffffffffffff8111156120e857600080fd5b6120f48c828d01611dcd565b93505060e08a013567ffffffffffffffff81111561211157600080fd5b61211d8c828d01611dcd565b9250506101008a013567ffffffffffffffff81111561213b57600080fd5b6121478c828d01611dcd565b9150509295985092959850929598565b60006020828403121561216957600080fd5b600061217784828501611e21565b91505092915050565b6000806040838503121561219357600080fd5b60006121a185828601611e21565b925050602083013567ffffffffffffffff8111156121be57600080fd5b6121ca85828601611dcd565b9150509250929050565b60006121e083836123c2565b905092915050565b60006121f4838361256b565b60208301905092915050565b6122098161272e565b82525050565b600061221a826126c0565b61222481856126fb565b935083602082028501612236856126a0565b8060005b85811015612272578484038952815161225385826121d4565b945061225e836126e1565b925060208a0199505060018101905061223a565b50829750879550505050505092915050565b600061228f826126cb565b612299818561270c565b93506122a4836126b0565b8060005b838110156122d55781516122bc88826121e8565b97506122c7836126ee565b9250506001810190506122a8565b5085935050505092915050565b6122eb81612740565b82525050565b6122fa81612740565b82525050565b600061230b826126d6565b612315818561271d565b9350612325818560208601612785565b61232e816127b8565b840191505092915050565b600060c0830160008301516123516000860182612200565b5060208301516123646020860182612200565b506040830151848203604086015261237c8282612300565b9150506060830151612391606086018261256b565b5060808301516123a4608086018261256b565b5060a08301516123b760a08601826122e2565b508091505092915050565b600060c0830160008301516123da6000860182612200565b5060208301516123ed6020860182612200565b50604083015184820360408601526124058282612300565b915050606083015161241a606086018261256b565b50608083015161242d608086018261256b565b5060a083015161244060a08601826122e2565b508091505092915050565b60006101608301600083015184820360008601526124698282612300565b915050602083015161247e602086018261256b565b50604083015184820360408601526124968282612300565b915050606083015184820360608601526124b08282612300565b915050608083015184820360808601526124ca8282612300565b91505060a083015184820360a08601526124e48282612300565b91505060c083015184820360c08601526124fe8282612300565b91505060e083015184820360e08601526125188282612300565b9150506101008301518482036101008601526125348282612300565b91505061012083015161254b6101208601826122e2565b506101408301516125606101408601826122e2565b508091505092915050565b6125748161276c565b82525050565b6125838161276c565b82525050565b600060208201905081810360008301526125a3818461220f565b905092915050565b600060208201905081810360008301526125c58184612284565b905092915050565b60006020820190506125e260008301846122f1565b92915050565b600060208201905081810360008301526126028184612339565b905092915050565b60006020820190508181036000830152612624818461244b565b905092915050565b6000602082019050612641600083018461257a565b92915050565b6000604051905081810181811067ffffffffffffffff8211171561266a57600080fd5b8060405250919050565b600067ffffffffffffffff82111561268b57600080fd5b601f19601f8301169050602081019050919050565b6000819050602082019050919050565b6000819050602082019050919050565b600081519050919050565b600081519050919050565b600081519050919050565b6000602082019050919050565b6000602082019050919050565b600082825260208201905092915050565b600082825260208201905092915050565b600082825260208201905092915050565b60006127398261274c565b9050919050565b60008115159050919050565b600073ffffffffffffffffffffffffffffffffffffffff82169050919050565b6000819050919050565b82818337600083830152505050565b60005b838110156127a3578082015181840152602081019050612788565b838111156127b2576000848401525b50505050565b6000601f19601f8301169050919050565b6127d28161272e565b81146127dd57600080fd5b50565b6127e98161276c565b81146127f457600080fd5b5056fea365627a7a723158201ff0eb653c99c4abfa8f28422ae99c6c49fe3760643e1d38437aebcbbcffc6b26c6578706572696d656e74616cf564736f6c63430005100040",
  "source": "pragma solidity >= 0.5.0;\r\n\r\npragma experimental ABIEncoderV2;\r\n\r\nimport \"./chainofcustody.sol\";\r\n\r\ncontract Case is ChainOfCustody {\r\n\r\n    constructor(string memory _case_name, uint _case_number) public{\r\n        case_info = Case_Info(_case_name, _case_number);\r\n        case_owner = msg.sender;\r\n        authorized_agents[msg.sender] = true; //case_owner is also an authorized agent\r\n        creation_time = now;\r\n    }\r\n\r\n    //Evidence Functions\r\n\r\n    function log_evidence(\r\n        string memory _submitting_agent,\r\n        string memory _description_of_evidence,\r\n        string memory _description_of_offense,\r\n        string memory _victim_name,\r\n        string memory _suspect_name,\r\n        string memory _phone_number,\r\n        string memory _condition,\r\n        string memory _notes\r\n    ) only_authorized public {\r\n        require(id_to_evidence[number_of_items].exists == false);\r\n        id_to_evidence[number_of_items] = Evidence(\r\n            _submitting_agent,\r\n            number_of_items,\r\n            _description_of_evidence,\r\n            _description_of_offense,\r\n            _victim_name,\r\n            _suspect_name,\r\n            _phone_number,\r\n            _condition,\r\n            _notes,\r\n            true,\r\n            true\r\n        );\r\n        evidence_holder[number_of_items] = case_owner;\r\n        number_of_items = number_of_items.add(1);\r\n    }\r\n\r\n    function authorize_agent(address _agent) only_owner public {\r\n        authorized_agents[_agent] = true;\r\n    }\r\n\r\n    function deauthorize_agent(address _agent) only_owner public {\r\n        authorized_agents[_agent] = false;\r\n    }\r\n\r\n    //check out a piece of evidence from locker\r\n    function check_out(uint _item_number, string memory purpose) only_authorized public {\r\n        require(id_to_evidence[_item_number].exists);//evidence has been logged\r\n        //can only check out evidence if it has been checked in\r\n        require(evidence_holder[_item_number] == case_owner); //evidence is currently checked in\r\n        //Check_Out memory check_out_object = Check_Out(_item_number, personnel, authorizer, purpose, now, 0, false);\r\n        storage_log[_item_number].push(Check_Out(msg.sender, case_owner, purpose, now, 0, false));\r\n        id_to_evidence[_item_number].checked_in = false;\r\n        evidence_holder[_item_number] = msg.sender;\r\n        userEvidenceCount[msg.sender] = userEvidenceCount[msg.sender].add(1);\r\n    }\r\n\r\n    //sets checkedIn value of most recent check_out object in Evidence storage_log to true\r\n    function check_in(uint _item_number) only_authorized public {\r\n        require(evidence_holder[_item_number] == msg.sender); //can only check in if function caller holds the evidence\r\n        require(id_to_evidence[_item_number].exists); //evidence has been logged\r\n        require(storage_log[_item_number][storage_log[_item_number].length-1].checked_in == false); //evidence has to be checked out\r\n\r\n        storage_log[_item_number][storage_log[_item_number].length-1].checked_in = true;\r\n        storage_log[_item_number][storage_log[_item_number].length-1].time_checked_in = now;\r\n        id_to_evidence[_item_number].checked_in = true;\r\n        userEvidenceCount[msg.sender] = userEvidenceCount[msg.sender].sub(1);\r\n    }\r\n\r\n    //update an existing piece of evidence (in case of typos or other reasons)\r\n    //should be used only when necessary!\r\n    function updateEvidence(\r\n        string memory _submitting_agent,\r\n        uint _item_number,\r\n        string memory _description_of_evidence,\r\n        string memory _description_of_offense,\r\n        string memory _victim_name,\r\n        string memory _suspect_name,\r\n        string memory _phone_number,\r\n        string memory _condition,\r\n        string memory _notes\r\n    ) only_authorized public {\r\n        require(id_to_evidence[_item_number].exists);\r\n        id_to_evidence[_item_number] = Evidence(\r\n            _submitting_agent,\r\n            _item_number,\r\n            _description_of_evidence,\r\n            _description_of_offense,\r\n            _victim_name,\r\n            _suspect_name,\r\n            _phone_number,\r\n            _condition,\r\n            _notes,\r\n            id_to_evidence[_item_number].checked_in,\r\n            true\r\n        );\r\n    }\r\n\r\n    //getters\r\n\r\n    function item_count() public view returns (uint){\r\n        return number_of_items;\r\n    }\r\n\r\n    function get_storage_log(uint _item_number) only_authorized public view returns (Check_Out[] memory) {\r\n        return storage_log[_item_number];\r\n    }\r\n\r\n    function get_current_check_out(uint _item_number) public view returns (Check_Out memory) {\r\n        require(storage_log[_item_number].length != 0);\r\n        return storage_log[_item_number][storage_log[_item_number].length-1];\r\n    }\r\n\r\n    function get_evidence(uint _item_number) public view returns (Evidence memory) {\r\n        return id_to_evidence[_item_number];\r\n    }\r\n\r\n    function get_evidence_count() only_authorized public view returns (uint) {\r\n        return userEvidenceCount[msg.sender];\r\n    }\r\n\r\n    function getEvidenceByOwner(address _owner) external view returns(uint[] memory) {\r\n            uint[] memory result = new uint[](userEvidenceCount[_owner]);\r\n            uint counter = 0;\r\n            for (uint i = 0; i < number_of_items; i++) {\r\n                if (evidence_holder[i] == _owner) {\r\n                result[counter] = i;\r\n                counter++;\r\n                }\r\n            }\r\n            return result;\r\n    }\r\n\r\n    function getIfAgentAuthorized(address agent) external view returns(bool) {\r\n        return authorized_agents[agent];\r\n    }\r\n\r\n    function getIfCheckedIn(uint _item_number) external view returns(bool) {\r\n        return id_to_evidence[_item_number].checked_in;\r\n    }\r\n}\r\n",
  "sourcePath": "C:\\Users\\smonk\\WebstormProjects\\Chain-of-Custody\\contracts\\case.sol",
  "compiler": {
    "name": "solc",
    "version": "0.5.16+commit.9c3226ce.Emscripten.clang"
  },
  "schemaVersion": "3.1.0",
  "updatedAt": "2020-05-04T04:01:28.287Z",
  "networkType": "ethereum",
  "devdoc": {
    "methods": {}
  },
  "userdoc": {
    "methods": {}
  }
}