{
  "contractName": "Case",
  "abi": [
    {
      "inputs": [
        {
          "internalType": "string",
          "name": "_case_name",
          "type": "string"
        },
        {
          "internalType": "uint256",
          "name": "_case_number",
          "type": "uint256"
        }
      ],
      "payable": false,
      "stateMutability": "nonpayable",
      "type": "constructor"
    },
    {
      "constant": false,
      "inputs": [
        {
          "internalType": "string",
          "name": "_submitting_agent",
          "type": "string"
        },
        {
          "internalType": "string",
          "name": "_description_of_evidence",
          "type": "string"
        },
        {
          "internalType": "string",
          "name": "_description_of_offense",
          "type": "string"
        },
        {
          "internalType": "string",
          "name": "_victim_name",
          "type": "string"
        },
        {
          "internalType": "string",
          "name": "_suspect_name",
          "type": "string"
        },
        {
          "internalType": "string",
          "name": "_phone_number",
          "type": "string"
        },
        {
          "internalType": "string",
          "name": "_condition",
          "type": "string"
        },
        {
          "internalType": "string",
          "name": "_notes",
          "type": "string"
        }
      ],
      "name": "log_evidence",
      "outputs": [],
      "payable": false,
      "stateMutability": "nonpayable",
      "type": "function"
    },
    {
      "constant": false,
      "inputs": [
        {
          "internalType": "address",
          "name": "_agent",
          "type": "address"
        }
      ],
      "name": "authorize_agent",
      "outputs": [],
      "payable": false,
      "stateMutability": "nonpayable",
      "type": "function"
    },
    {
      "constant": false,
      "inputs": [
        {
          "internalType": "address",
          "name": "_agent",
          "type": "address"
        }
      ],
      "name": "deauthorize_agent",
      "outputs": [],
      "payable": false,
      "stateMutability": "nonpayable",
      "type": "function"
    },
    {
      "constant": false,
      "inputs": [
        {
          "internalType": "uint256",
          "name": "_item_number",
          "type": "uint256"
        },
        {
          "internalType": "string",
          "name": "purpose",
          "type": "string"
        }
      ],
      "name": "check_out",
      "outputs": [],
      "payable": false,
      "stateMutability": "nonpayable",
      "type": "function"
    },
    {
      "constant": false,
      "inputs": [
        {
          "internalType": "uint256",
          "name": "_item_number",
          "type": "uint256"
        }
      ],
      "name": "check_in",
      "outputs": [],
      "payable": false,
      "stateMutability": "nonpayable",
      "type": "function"
    },
    {
      "constant": false,
      "inputs": [
        {
          "internalType": "string",
          "name": "_submitting_agent",
          "type": "string"
        },
        {
          "internalType": "uint256",
          "name": "_item_number",
          "type": "uint256"
        },
        {
          "internalType": "string",
          "name": "_description_of_evidence",
          "type": "string"
        },
        {
          "internalType": "string",
          "name": "_description_of_offense",
          "type": "string"
        },
        {
          "internalType": "string",
          "name": "_victim_name",
          "type": "string"
        },
        {
          "internalType": "string",
          "name": "_suspect_name",
          "type": "string"
        },
        {
          "internalType": "string",
          "name": "_phone_number",
          "type": "string"
        },
        {
          "internalType": "string",
          "name": "_condition",
          "type": "string"
        },
        {
          "internalType": "string",
          "name": "_notes",
          "type": "string"
        }
      ],
      "name": "updateEvidence",
      "outputs": [],
      "payable": false,
      "stateMutability": "nonpayable",
      "type": "function"
    },
    {
      "constant": true,
      "inputs": [],
      "name": "item_count",
      "outputs": [
        {
          "internalType": "uint256",
          "name": "",
          "type": "uint256"
        }
      ],
      "payable": false,
      "stateMutability": "view",
      "type": "function"
    },
    {
      "constant": true,
      "inputs": [
        {
          "internalType": "uint256",
          "name": "_item_number",
          "type": "uint256"
        }
      ],
      "name": "get_storage_log",
      "outputs": [
        {
          "components": [
            {
              "internalType": "address",
              "name": "personnel",
              "type": "address"
            },
            {
              "internalType": "address",
              "name": "authorizer",
              "type": "address"
            },
            {
              "internalType": "string",
              "name": "purpose",
              "type": "string"
            },
            {
              "internalType": "uint256",
              "name": "time_checked_out",
              "type": "uint256"
            },
            {
              "internalType": "uint256",
              "name": "time_checked_in",
              "type": "uint256"
            },
            {
              "internalType": "bool",
              "name": "checked_in",
              "type": "bool"
            }
          ],
          "internalType": "struct ChainOfCustody.Check_Out[]",
          "name": "",
          "type": "tuple[]"
        }
      ],
      "payable": false,
      "stateMutability": "view",
      "type": "function"
    },
    {
      "constant": true,
      "inputs": [
        {
          "internalType": "uint256",
          "name": "_item_number",
          "type": "uint256"
        }
      ],
      "name": "get_current_check_out",
      "outputs": [
        {
          "components": [
            {
              "internalType": "address",
              "name": "personnel",
              "type": "address"
            },
            {
              "internalType": "address",
              "name": "authorizer",
              "type": "address"
            },
            {
              "internalType": "string",
              "name": "purpose",
              "type": "string"
            },
            {
              "internalType": "uint256",
              "name": "time_checked_out",
              "type": "uint256"
            },
            {
              "internalType": "uint256",
              "name": "time_checked_in",
              "type": "uint256"
            },
            {
              "internalType": "bool",
              "name": "checked_in",
              "type": "bool"
            }
          ],
          "internalType": "struct ChainOfCustody.Check_Out",
          "name": "",
          "type": "tuple"
        }
      ],
      "payable": false,
      "stateMutability": "view",
      "type": "function"
    },
    {
      "constant": true,
      "inputs": [
        {
          "internalType": "uint256",
          "name": "_item_number",
          "type": "uint256"
        }
      ],
      "name": "get_evidence",
      "outputs": [
        {
          "components": [
            {
              "internalType": "string",
              "name": "submitting_agent",
              "type": "string"
            },
            {
              "internalType": "uint256",
              "name": "item_number",
              "type": "uint256"
            },
            {
              "internalType": "string",
              "name": "description_of_evidence",
              "type": "string"
            },
            {
              "internalType": "string",
              "name": "description_of_offense",
              "type": "string"
            },
            {
              "internalType": "string",
              "name": "victim_name",
              "type": "string"
            },
            {
              "internalType": "string",
              "name": "suspect_name",
              "type": "string"
            },
            {
              "internalType": "string",
              "name": "phone_number",
              "type": "string"
            },
            {
              "internalType": "string",
              "name": "condition",
              "type": "string"
            },
            {
              "internalType": "string",
              "name": "notes",
              "type": "string"
            },
            {
              "internalType": "bool",
              "name": "checked_in",
              "type": "bool"
            },
            {
              "internalType": "bool",
              "name": "exists",
              "type": "bool"
            }
          ],
          "internalType": "struct ChainOfCustody.Evidence",
          "name": "",
          "type": "tuple"
        }
      ],
      "payable": false,
      "stateMutability": "view",
      "type": "function"
    },
    {
      "constant": true,
      "inputs": [],
      "name": "get_evidence_count",
      "outputs": [
        {
          "internalType": "uint256",
          "name": "",
          "type": "uint256"
        }
      ],
      "payable": false,
      "stateMutability": "view",
      "type": "function"
    },
    {
      "constant": true,
      "inputs": [
        {
          "internalType": "address",
          "name": "_owner",
          "type": "address"
        }
      ],
      "name": "getEvidenceByOwner",
      "outputs": [
        {
          "internalType": "uint256[]",
          "name": "",
          "type": "uint256[]"
        }
      ],
      "payable": false,
      "stateMutability": "view",
      "type": "function"
    },
    {
      "constant": true,
      "inputs": [
        {
          "internalType": "address",
          "name": "agent",
          "type": "address"
        }
      ],
      "name": "getIfAgentAuthorized",
      "outputs": [
        {
          "internalType": "bool",
          "name": "",
          "type": "bool"
        }
      ],
      "payable": false,
      "stateMutability": "view",
      "type": "function"
    },
    {
      "constant": true,
      "inputs": [
        {
          "internalType": "uint256",
          "name": "_item_number",
          "type": "uint256"
        }
      ],
      "name": "getIfCheckedIn",
      "outputs": [
        {
          "internalType": "bool",
          "name": "",
          "type": "bool"
        }
      ],
      "payable": false,
      "stateMutability": "view",
      "type": "function"
    }
  ],
  "bytecode": "0x608060405260006003553480156200001657600080fd5b5060405162002bf838038062002bf883398181016040526200003c919081019062000249565b604051806040016040528083815260200182815250600760008201518160000190805190602001906200007192919062000127565b506020820151816001015590505033600160006101000a81548173ffffffffffffffffffffffffffffffffffffffff021916908373ffffffffffffffffffffffffffffffffffffffff1602179055506001600260003373ffffffffffffffffffffffffffffffffffffffff1673ffffffffffffffffffffffffffffffffffffffff16815260200190815260200160002060006101000a81548160ff02191690831515021790555042600081905550505062000358565b828054600181600116156101000203166002900490600052602060002090601f016020900481019282601f106200016a57805160ff19168380011785556200019b565b828001600101855582156200019b579182015b828111156200019a5782518255916020019190600101906200017d565b5b509050620001aa9190620001ae565b5090565b620001d391905b80821115620001cf576000816000905550600101620001b5565b5090565b90565b600082601f830112620001e857600080fd5b8151620001ff620001f982620002d1565b620002a3565b915080825260208301602083018583830111156200021c57600080fd5b6200022983828462000308565b50505092915050565b60008151905062000243816200033e565b92915050565b600080604083850312156200025d57600080fd5b600083015167ffffffffffffffff8111156200027857600080fd5b6200028685828601620001d6565b9250506020620002998582860162000232565b9150509250929050565b6000604051905081810181811067ffffffffffffffff82111715620002c757600080fd5b8060405250919050565b600067ffffffffffffffff821115620002e957600080fd5b601f19601f8301169050602081019050919050565b6000819050919050565b60005b83811015620003285780820151818401526020810190506200030b565b8381111562000338576000848401525b50505050565b6200034981620002fe565b81146200035557600080fd5b50565b61289080620003686000396000f3fe608060405234801561001057600080fd5b50600436106100ea5760003560e01c80639a2e912a1161008c578063d14e4f1a11610066578063d14e4f1a1461026d578063e08f6f5f14610289578063e67b1d5d146102a7578063ec712295146102c3576100ea565b80639a2e912a146101dd5780639fd43b8e1461020d578063b95a278c1461023d576100ea565b806345807f68116100c857806345807f681461015757806363f5eace146101735780636ac1fda91461018f5780638cadda67146101bf576100ea565b806310f6b24f146100ef578063123368af1461011f57806318090bf31461013b575b600080fd5b61010960048036036101049190810190611e8c565b6102f3565b6040516101169190612623565b60405180910390f35b610139600480360361013491908101906121ad565b610349565b005b61015560048036036101509190810190612027565b610613565b005b610171600480360361016c9190810190611eb5565b610860565b005b61018d600480360361018891908101906121d6565b610b29565b005b6101a960048036036101a491908101906121ad565b610ef3565b6040516101b69190612660565b60405180910390f35b6101c7611471565b6040516101d49190612682565b60405180910390f35b6101f760048036036101f291908101906121ad565b61147b565b6040516102049190612623565b60405180910390f35b610227600480360361022291908101906121ad565b6114a8565b604051610234919061263e565b60405180910390f35b61025760048036036102529190810190611e8c565b6116fe565b6040516102649190612601565b60405180910390f35b61028760048036036102829190810190611e8c565b611828565b005b6102916118dd565b60405161029e9190612682565b60405180910390f35b6102c160048036036102bc9190810190611e8c565b61197a565b005b6102dd60048036036102d891908101906121ad565b611a2f565b6040516102ea91906125df565b60405180910390f35b6000600260008373ffffffffffffffffffffffffffffffffffffffff1673ffffffffffffffffffffffffffffffffffffffff16815260200190815260200160002060009054906101000a900460ff169050919050565b600260003373ffffffffffffffffffffffffffffffffffffffff1673ffffffffffffffffffffffffffffffffffffffff16815260200190815260200160002060009054906101000a900460ff1661039f57600080fd5b3373ffffffffffffffffffffffffffffffffffffffff166005600083815260200190815260200160002060009054906101000a900473ffffffffffffffffffffffffffffffffffffffff1673ffffffffffffffffffffffffffffffffffffffff161461040a57600080fd5b6004600082815260200190815260200160002060090160019054906101000a900460ff1661043757600080fd5b600015156009600083815260200190815260200160002060016009600085815260200190815260200160002080549050038154811061047257fe5b906000526020600020906006020160050160009054906101000a900460ff1615151461049d57600080fd5b6001600960008381526020019081526020016000206001600960008581526020019081526020016000208054905003815481106104d657fe5b906000526020600020906006020160050160006101000a81548160ff021916908315150217905550426009600083815260200190815260200160002060016009600085815260200190815260200160002080549050038154811061053657fe5b90600052602060002090600602016004018190555060016004600083815260200190815260200160002060090160006101000a81548160ff0219169083151502179055506105cd6001600660003373ffffffffffffffffffffffffffffffffffffffff1673ffffffffffffffffffffffffffffffffffffffff16815260200190815260200160002054611c7490919063ffffffff16565b600660003373ffffffffffffffffffffffffffffffffffffffff1673ffffffffffffffffffffffffffffffffffffffff1681526020019081526020016000208190555050565b600260003373ffffffffffffffffffffffffffffffffffffffff1673ffffffffffffffffffffffffffffffffffffffff16815260200190815260200160002060009054906101000a900460ff1661066957600080fd5b6004600089815260200190815260200160002060090160019054906101000a900460ff1661069657600080fd5b6040518061016001604052808a8152602001898152602001888152602001878152602001868152602001858152602001848152602001838152602001828152602001600460008b815260200190815260200160002060090160009054906101000a900460ff161515815260200160011515815250600460008a81526020019081526020016000206000820151816000019080519060200190610739929190611ca7565b50602082015181600101556040820151816002019080519060200190610760929190611ca7565b50606082015181600301908051906020019061077d929190611ca7565b50608082015181600401908051906020019061079a929190611ca7565b5060a08201518160050190805190602001906107b7929190611ca7565b5060c08201518160060190805190602001906107d4929190611ca7565b5060e08201518160070190805190602001906107f1929190611ca7565b5061010082015181600801908051906020019061080f929190611ca7565b506101208201518160090160006101000a81548160ff0219169083151502179055506101408201518160090160016101000a81548160ff021916908315150217905550905050505050505050505050565b600260003373ffffffffffffffffffffffffffffffffffffffff1673ffffffffffffffffffffffffffffffffffffffff16815260200190815260200160002060009054906101000a900460ff166108b657600080fd5b6000151560046000600354815260200190815260200160002060090160019054906101000a900460ff161515146108ec57600080fd5b6040518061016001604052808981526020016003548152602001888152602001878152602001868152602001858152602001848152602001838152602001828152602001600115158152602001600115158152506004600060035481526020019081526020016000206000820151816000019080519060200190610971929190611ca7565b50602082015181600101556040820151816002019080519060200190610998929190611ca7565b5060608201518160030190805190602001906109b5929190611ca7565b5060808201518160040190805190602001906109d2929190611ca7565b5060a08201518160050190805190602001906109ef929190611ca7565b5060c0820151816006019080519060200190610a0c929190611ca7565b5060e0820151816007019080519060200190610a29929190611ca7565b50610100820151816008019080519060200190610a47929190611ca7565b506101208201518160090160006101000a81548160ff0219169083151502179055506101408201518160090160016101000a81548160ff021916908315150217905550905050600160009054906101000a900473ffffffffffffffffffffffffffffffffffffffff1660056000600354815260200190815260200160002060006101000a81548173ffffffffffffffffffffffffffffffffffffffff021916908373ffffffffffffffffffffffffffffffffffffffff160217905550610b196001600354611c8b90919063ffffffff16565b6003819055505050505050505050565b600260003373ffffffffffffffffffffffffffffffffffffffff1673ffffffffffffffffffffffffffffffffffffffff16815260200190815260200160002060009054906101000a900460ff16610b7f57600080fd5b6004600083815260200190815260200160002060090160019054906101000a900460ff16610bac57600080fd5b600160009054906101000a900473ffffffffffffffffffffffffffffffffffffffff1673ffffffffffffffffffffffffffffffffffffffff166005600084815260200190815260200160002060009054906101000a900473ffffffffffffffffffffffffffffffffffffffff1673ffffffffffffffffffffffffffffffffffffffff1614610c3957600080fd5b600960008381526020019081526020016000206040518060c001604052803373ffffffffffffffffffffffffffffffffffffffff168152602001600160009054906101000a900473ffffffffffffffffffffffffffffffffffffffff1673ffffffffffffffffffffffffffffffffffffffff16815260200183815260200142815260200160008152602001600015158152509080600181540180825580915050906001820390600052602060002090600602016000909192909190915060008201518160000160006101000a81548173ffffffffffffffffffffffffffffffffffffffff021916908373ffffffffffffffffffffffffffffffffffffffff16021790555060208201518160010160006101000a81548173ffffffffffffffffffffffffffffffffffffffff021916908373ffffffffffffffffffffffffffffffffffffffff1602179055506040820151816002019080519060200190610da0929190611ca7565b50606082015181600301556080820151816004015560a08201518160050160006101000a81548160ff02191690831515021790555050505060006004600084815260200190815260200160002060090160006101000a81548160ff021916908315150217905550336005600084815260200190815260200160002060006101000a81548173ffffffffffffffffffffffffffffffffffffffff021916908373ffffffffffffffffffffffffffffffffffffffff160217905550610eac6001600660003373ffffffffffffffffffffffffffffffffffffffff1673ffffffffffffffffffffffffffffffffffffffff16815260200190815260200160002054611c8b90919063ffffffff16565b600660003373ffffffffffffffffffffffffffffffffffffffff1673ffffffffffffffffffffffffffffffffffffffff168152602001908152602001600020819055505050565b610efb611d27565b6004600083815260200190815260200160002060405180610160016040529081600082018054600181600116156101000203166002900480601f016020809104026020016040519081016040528092919081815260200182805460018160011615610100020316600290048015610fb35780601f10610f8857610100808354040283529160200191610fb3565b820191906000526020600020905b815481529060010190602001808311610f9657829003601f168201915b5050505050815260200160018201548152602001600282018054600181600116156101000203166002900480601f01602080910402602001604051908101604052809291908181526020018280546001816001161561010002031660029004801561105f5780601f106110345761010080835404028352916020019161105f565b820191906000526020600020905b81548152906001019060200180831161104257829003601f168201915b50505050508152602001600382018054600181600116156101000203166002900480601f0160208091040260200160405190810160405280929190818152602001828054600181600116156101000203166002900480156111015780601f106110d657610100808354040283529160200191611101565b820191906000526020600020905b8154815290600101906020018083116110e457829003601f168201915b50505050508152602001600482018054600181600116156101000203166002900480601f0160208091040260200160405190810160405280929190818152602001828054600181600116156101000203166002900480156111a35780601f10611178576101008083540402835291602001916111a3565b820191906000526020600020905b81548152906001019060200180831161118657829003601f168201915b50505050508152602001600582018054600181600116156101000203166002900480601f0160208091040260200160405190810160405280929190818152602001828054600181600116156101000203166002900480156112455780601f1061121a57610100808354040283529160200191611245565b820191906000526020600020905b81548152906001019060200180831161122857829003601f168201915b50505050508152602001600682018054600181600116156101000203166002900480601f0160208091040260200160405190810160405280929190818152602001828054600181600116156101000203166002900480156112e75780601f106112bc576101008083540402835291602001916112e7565b820191906000526020600020905b8154815290600101906020018083116112ca57829003601f168201915b50505050508152602001600782018054600181600116156101000203166002900480601f0160208091040260200160405190810160405280929190818152602001828054600181600116156101000203166002900480156113895780601f1061135e57610100808354040283529160200191611389565b820191906000526020600020905b81548152906001019060200180831161136c57829003601f168201915b50505050508152602001600882018054600181600116156101000203166002900480601f01602080910402602001604051908101604052809291908181526020018280546001816001161561010002031660029004801561142b5780601f106114005761010080835404028352916020019161142b565b820191906000526020600020905b81548152906001019060200180831161140e57829003601f168201915b505050505081526020016009820160009054906101000a900460ff161515151581526020016009820160019054906101000a900460ff1615151515815250509050919050565b6000600354905090565b60006004600083815260200190815260200160002060090160009054906101000a900460ff169050919050565b6114b0611d85565b600260003373ffffffffffffffffffffffffffffffffffffffff1673ffffffffffffffffffffffffffffffffffffffff16815260200190815260200160002060009054906101000a900460ff1661150657600080fd5b60006009600084815260200190815260200160002080549050141561152a57600080fd5b6009600083815260200190815260200160002060016009600085815260200190815260200160002080549050038154811061156157fe5b90600052602060002090600602016040518060c00160405290816000820160009054906101000a900473ffffffffffffffffffffffffffffffffffffffff1673ffffffffffffffffffffffffffffffffffffffff1673ffffffffffffffffffffffffffffffffffffffff1681526020016001820160009054906101000a900473ffffffffffffffffffffffffffffffffffffffff1673ffffffffffffffffffffffffffffffffffffffff1673ffffffffffffffffffffffffffffffffffffffff168152602001600282018054600181600116156101000203166002900480601f0160208091040260200160405190810160405280929190818152602001828054600181600116156101000203166002900480156116bf5780601f10611694576101008083540402835291602001916116bf565b820191906000526020600020905b8154815290600101906020018083116116a257829003601f168201915b5050505050815260200160038201548152602001600482015481526020016005820160009054906101000a900460ff1615151515815250509050919050565b606080600660008473ffffffffffffffffffffffffffffffffffffffff1673ffffffffffffffffffffffffffffffffffffffff1681526020019081526020016000205460405190808252806020026020018201604052801561176f5781602001602082028038833980820191505090505b509050600080905060008090505b60035481101561181d578473ffffffffffffffffffffffffffffffffffffffff166005600083815260200190815260200160002060009054906101000a900473ffffffffffffffffffffffffffffffffffffffff1673ffffffffffffffffffffffffffffffffffffffff16141561181057808383815181106117fb57fe5b60200260200101818152505081806001019250505b808060010191505061177d565b508192505050919050565b600160009054906101000a900473ffffffffffffffffffffffffffffffffffffffff1673ffffffffffffffffffffffffffffffffffffffff163373ffffffffffffffffffffffffffffffffffffffff161461188257600080fd5b6000600260008373ffffffffffffffffffffffffffffffffffffffff1673ffffffffffffffffffffffffffffffffffffffff16815260200190815260200160002060006101000a81548160ff02191690831515021790555050565b6000600260003373ffffffffffffffffffffffffffffffffffffffff1673ffffffffffffffffffffffffffffffffffffffff16815260200190815260200160002060009054906101000a900460ff1661193557600080fd5b600660003373ffffffffffffffffffffffffffffffffffffffff1673ffffffffffffffffffffffffffffffffffffffff16815260200190815260200160002054905090565b600160009054906101000a900473ffffffffffffffffffffffffffffffffffffffff1673ffffffffffffffffffffffffffffffffffffffff163373ffffffffffffffffffffffffffffffffffffffff16146119d457600080fd5b6001600260008373ffffffffffffffffffffffffffffffffffffffff1673ffffffffffffffffffffffffffffffffffffffff16815260200190815260200160002060006101000a81548160ff02191690831515021790555050565b6060600260003373ffffffffffffffffffffffffffffffffffffffff1673ffffffffffffffffffffffffffffffffffffffff16815260200190815260200160002060009054906101000a900460ff16611a8757600080fd5b60096000838152602001908152602001600020805480602002602001604051908101604052809291908181526020016000905b82821015611c6957838290600052602060002090600602016040518060c00160405290816000820160009054906101000a900473ffffffffffffffffffffffffffffffffffffffff1673ffffffffffffffffffffffffffffffffffffffff1673ffffffffffffffffffffffffffffffffffffffff1681526020016001820160009054906101000a900473ffffffffffffffffffffffffffffffffffffffff1673ffffffffffffffffffffffffffffffffffffffff1673ffffffffffffffffffffffffffffffffffffffff168152602001600282018054600181600116156101000203166002900480601f016020809104026020016040519081016040528092919081815260200182805460018160011615610100020316600290048015611c225780601f10611bf757610100808354040283529160200191611c22565b820191906000526020600020905b815481529060010190602001808311611c0557829003601f168201915b5050505050815260200160038201548152602001600482015481526020016005820160009054906101000a900460ff16151515158152505081526020019060010190611aba565b505050509050919050565b600082821115611c8057fe5b818303905092915050565b600080828401905083811015611c9d57fe5b8091505092915050565b828054600181600116156101000203166002900490600052602060002090601f016020900481019282601f10611ce857805160ff1916838001178555611d16565b82800160010185558215611d16579182015b82811115611d15578251825591602001919060010190611cfa565b5b509050611d239190611de9565b5090565b6040518061016001604052806060815260200160008152602001606081526020016060815260200160608152602001606081526020016060815260200160608152602001606081526020016000151581526020016000151581525090565b6040518060c00160405280600073ffffffffffffffffffffffffffffffffffffffff168152602001600073ffffffffffffffffffffffffffffffffffffffff1681526020016060815260200160008152602001600081526020016000151581525090565b611e0b91905b80821115611e07576000816000905550600101611def565b5090565b90565b600081359050611e1d8161281f565b92915050565b600082601f830112611e3457600080fd5b8135611e47611e42826126ca565b61269d565b91508082526020830160208301858383011115611e6357600080fd5b611e6e8382846127cc565b50505092915050565b600081359050611e8681612836565b92915050565b600060208284031215611e9e57600080fd5b6000611eac84828501611e0e565b91505092915050565b600080600080600080600080610100898b031215611ed257600080fd5b600089013567ffffffffffffffff811115611eec57600080fd5b611ef88b828c01611e23565b985050602089013567ffffffffffffffff811115611f1557600080fd5b611f218b828c01611e23565b975050604089013567ffffffffffffffff811115611f3e57600080fd5b611f4a8b828c01611e23565b965050606089013567ffffffffffffffff811115611f6757600080fd5b611f738b828c01611e23565b955050608089013567ffffffffffffffff811115611f9057600080fd5b611f9c8b828c01611e23565b94505060a089013567ffffffffffffffff811115611fb957600080fd5b611fc58b828c01611e23565b93505060c089013567ffffffffffffffff811115611fe257600080fd5b611fee8b828c01611e23565b92505060e089013567ffffffffffffffff81111561200b57600080fd5b6120178b828c01611e23565b9150509295985092959890939650565b60008060008060008060008060006101208a8c03121561204657600080fd5b60008a013567ffffffffffffffff81111561206057600080fd5b61206c8c828d01611e23565b995050602061207d8c828d01611e77565b98505060408a013567ffffffffffffffff81111561209a57600080fd5b6120a68c828d01611e23565b97505060608a013567ffffffffffffffff8111156120c357600080fd5b6120cf8c828d01611e23565b96505060808a013567ffffffffffffffff8111156120ec57600080fd5b6120f88c828d01611e23565b95505060a08a013567ffffffffffffffff81111561211557600080fd5b6121218c828d01611e23565b94505060c08a013567ffffffffffffffff81111561213e57600080fd5b61214a8c828d01611e23565b93505060e08a013567ffffffffffffffff81111561216757600080fd5b6121738c828d01611e23565b9250506101008a013567ffffffffffffffff81111561219157600080fd5b61219d8c828d01611e23565b9150509295985092959850929598565b6000602082840312156121bf57600080fd5b60006121cd84828501611e77565b91505092915050565b600080604083850312156121e957600080fd5b60006121f785828601611e77565b925050602083013567ffffffffffffffff81111561221457600080fd5b61222085828601611e23565b9150509250929050565b60006122368383612418565b905092915050565b600061224a83836125c1565b60208301905092915050565b61225f81612784565b82525050565b600061227082612716565b61227a8185612751565b93508360208202850161228c856126f6565b8060005b858110156122c857848403895281516122a9858261222a565b94506122b483612737565b925060208a01995050600181019050612290565b50829750879550505050505092915050565b60006122e582612721565b6122ef8185612762565b93506122fa83612706565b8060005b8381101561232b578151612312888261223e565b975061231d83612744565b9250506001810190506122fe565b5085935050505092915050565b61234181612796565b82525050565b61235081612796565b82525050565b60006123618261272c565b61236b8185612773565b935061237b8185602086016127db565b6123848161280e565b840191505092915050565b600060c0830160008301516123a76000860182612256565b5060208301516123ba6020860182612256565b50604083015184820360408601526123d28282612356565b91505060608301516123e760608601826125c1565b5060808301516123fa60808601826125c1565b5060a083015161240d60a0860182612338565b508091505092915050565b600060c0830160008301516124306000860182612256565b5060208301516124436020860182612256565b506040830151848203604086015261245b8282612356565b915050606083015161247060608601826125c1565b50608083015161248360808601826125c1565b5060a083015161249660a0860182612338565b508091505092915050565b60006101608301600083015184820360008601526124bf8282612356565b91505060208301516124d460208601826125c1565b50604083015184820360408601526124ec8282612356565b915050606083015184820360608601526125068282612356565b915050608083015184820360808601526125208282612356565b91505060a083015184820360a086015261253a8282612356565b91505060c083015184820360c08601526125548282612356565b91505060e083015184820360e086015261256e8282612356565b91505061010083015184820361010086015261258a8282612356565b9150506101208301516125a1610120860182612338565b506101408301516125b6610140860182612338565b508091505092915050565b6125ca816127c2565b82525050565b6125d9816127c2565b82525050565b600060208201905081810360008301526125f98184612265565b905092915050565b6000602082019050818103600083015261261b81846122da565b905092915050565b60006020820190506126386000830184612347565b92915050565b60006020820190508181036000830152612658818461238f565b905092915050565b6000602082019050818103600083015261267a81846124a1565b905092915050565b600060208201905061269760008301846125d0565b92915050565b6000604051905081810181811067ffffffffffffffff821117156126c057600080fd5b8060405250919050565b600067ffffffffffffffff8211156126e157600080fd5b601f19601f8301169050602081019050919050565b6000819050602082019050919050565b6000819050602082019050919050565b600081519050919050565b600081519050919050565b600081519050919050565b6000602082019050919050565b6000602082019050919050565b600082825260208201905092915050565b600082825260208201905092915050565b600082825260208201905092915050565b600061278f826127a2565b9050919050565b60008115159050919050565b600073ffffffffffffffffffffffffffffffffffffffff82169050919050565b6000819050919050565b82818337600083830152505050565b60005b838110156127f95780820151818401526020810190506127de565b83811115612808576000848401525b50505050565b6000601f19601f8301169050919050565b61282881612784565b811461283357600080fd5b50565b61283f816127c2565b811461284a57600080fd5b5056fea365627a7a72315820f1743979d4506160d0a7ada0212e047592a290c3415365c2a66ebdd9b7f310c86c6578706572696d656e74616cf564736f6c63430005100040",
  "source": "pragma solidity >= 0.5.0;\r\n\r\npragma experimental ABIEncoderV2;\r\n\r\nimport \"./chainofcustody.sol\";\r\n\r\ncontract Case is ChainOfCustody {\r\n\r\n    constructor(string memory _case_name, uint _case_number) public{\r\n        case_info = Case_Info(_case_name, _case_number);\r\n        case_owner = msg.sender;\r\n        authorized_agents[msg.sender] = true; //case_owner is also an authorized agent\r\n        creation_time = now;\r\n    }\r\n\r\n    //Evidence Functions\r\n\r\n    function log_evidence(\r\n        string memory _submitting_agent,\r\n        string memory _description_of_evidence,\r\n        string memory _description_of_offense,\r\n        string memory _victim_name,\r\n        string memory _suspect_name,\r\n        string memory _phone_number,\r\n        string memory _condition,\r\n        string memory _notes\r\n    ) only_authorized public {\r\n        require(id_to_evidence[number_of_items].exists == false);\r\n        id_to_evidence[number_of_items] = Evidence(\r\n            _submitting_agent,\r\n            number_of_items,\r\n            _description_of_evidence,\r\n            _description_of_offense,\r\n            _victim_name,\r\n            _suspect_name,\r\n            _phone_number,\r\n            _condition,\r\n            _notes,\r\n            true,\r\n            true\r\n        );\r\n        evidence_holder[number_of_items] = case_owner;\r\n        number_of_items = number_of_items.add(1);\r\n    }\r\n\r\n    function authorize_agent(address _agent) only_owner public {\r\n        authorized_agents[_agent] = true;\r\n    }\r\n\r\n    function deauthorize_agent(address _agent) only_owner public {\r\n        authorized_agents[_agent] = false;\r\n    }\r\n\r\n    //check out a piece of evidence from locker\r\n    function check_out(uint _item_number, string memory purpose) only_authorized public {\r\n        require(id_to_evidence[_item_number].exists);//evidence has been logged\r\n        //can only check out evidence if it has been checked in\r\n        require(evidence_holder[_item_number] == case_owner); //evidence is currently checked in\r\n        //Check_Out memory check_out_object = Check_Out(_item_number, personnel, authorizer, purpose, now, 0, false);\r\n        storage_log[_item_number].push(Check_Out(msg.sender, case_owner, purpose, now, 0, false));\r\n        id_to_evidence[_item_number].checked_in = false;\r\n        evidence_holder[_item_number] = msg.sender;\r\n        userEvidenceCount[msg.sender] = userEvidenceCount[msg.sender].add(1);\r\n    }\r\n\r\n    //sets checkedIn value of most recent check_out object in Evidence storage_log to true\r\n    function check_in(uint _item_number) only_authorized public {\r\n        require(evidence_holder[_item_number] == msg.sender); //can only check in if function caller holds the evidence\r\n        require(id_to_evidence[_item_number].exists); //evidence has been logged\r\n        require(storage_log[_item_number][storage_log[_item_number].length-1].checked_in == false); //evidence has to be checked out\r\n\r\n        storage_log[_item_number][storage_log[_item_number].length-1].checked_in = true;\r\n        storage_log[_item_number][storage_log[_item_number].length-1].time_checked_in = now;\r\n        id_to_evidence[_item_number].checked_in = true;\r\n        userEvidenceCount[msg.sender] = userEvidenceCount[msg.sender].sub(1);\r\n    }\r\n\r\n    //update an existing piece of evidence (in case of typos or other reasons)\r\n    //should be used only when necessary!\r\n    function updateEvidence(\r\n        string memory _submitting_agent,\r\n        uint _item_number,\r\n        string memory _description_of_evidence,\r\n        string memory _description_of_offense,\r\n        string memory _victim_name,\r\n        string memory _suspect_name,\r\n        string memory _phone_number,\r\n        string memory _condition,\r\n        string memory _notes\r\n    ) only_authorized public {\r\n        require(id_to_evidence[_item_number].exists);\r\n        id_to_evidence[_item_number] = Evidence(\r\n            _submitting_agent,\r\n            _item_number,\r\n            _description_of_evidence,\r\n            _description_of_offense,\r\n            _victim_name,\r\n            _suspect_name,\r\n            _phone_number,\r\n            _condition,\r\n            _notes,\r\n            id_to_evidence[_item_number].checked_in,\r\n            true\r\n        );\r\n    }\r\n\r\n    //getters\r\n\r\n    function item_count() public view returns (uint){\r\n        return number_of_items;\r\n    }\r\n\r\n    function get_storage_log(uint _item_number) only_authorized public view returns (Check_Out[] memory) {\r\n        return storage_log[_item_number];\r\n    }\r\n\r\n    function get_current_check_out(uint _item_number) only_authorized public view returns (Check_Out memory) {\r\n        require(storage_log[_item_number].length != 0);\r\n        return storage_log[_item_number][storage_log[_item_number].length-1];\r\n    }\r\n\r\n    function get_evidence(uint _item_number) public view returns (Evidence memory) {\r\n        return id_to_evidence[_item_number];\r\n    }\r\n\r\n    function get_evidence_count() only_authorized public view returns (uint) {\r\n        return userEvidenceCount[msg.sender];\r\n    }\r\n\r\n    function getEvidenceByOwner(address _owner) external view returns(uint[] memory) {\r\n            uint[] memory result = new uint[](userEvidenceCount[_owner]);\r\n            uint counter = 0;\r\n            for (uint i = 0; i < number_of_items; i++) {\r\n                if (evidence_holder[i] == _owner) {\r\n                result[counter] = i;\r\n                counter++;\r\n                }\r\n            }\r\n            return result;\r\n    }\r\n\r\n    function getIfAgentAuthorized(address agent) external view returns(bool) {\r\n        return authorized_agents[agent];\r\n    }\r\n\r\n    function getIfCheckedIn(uint _item_number) external view returns(bool) {\r\n        return id_to_evidence[_item_number].checked_in;\r\n    }\r\n}\r\n",
  "sourcePath": "C:\\Users\\smonk\\WebstormProjects\\Chain-of-Custody\\contracts\\case.sol",
  "compiler": {
    "name": "solc",
    "version": "0.5.16+commit.9c3226ce.Emscripten.clang"
  },
  "schemaVersion": "3.1.0",
  "updatedAt": "2020-05-04T00:20:12.982Z",
  "networkType": "ethereum",
  "devdoc": {
    "methods": {}
  },
  "userdoc": {
    "methods": {}
  }
}